{
  "_format": "hh-sol-artifact-1",
  "contractName": "CaskTokenContract",
  "sourceName": "contracts/exchange/WhiskyToken.sol",
  "abi": [
    {
      "inputs": [],
      "stateMutability": "nonpayable",
      "type": "constructor"
    },
    {
      "inputs": [
        {
          "internalType": "address",
          "name": "sender",
          "type": "address"
        },
        {
          "internalType": "uint256",
          "name": "balance",
          "type": "uint256"
        },
        {
          "internalType": "uint256",
          "name": "needed",
          "type": "uint256"
        },
        {
          "internalType": "uint256",
          "name": "tokenId",
          "type": "uint256"
        }
      ],
      "name": "ERC1155InsufficientBalance",
      "type": "error"
    },
    {
      "inputs": [
        {
          "internalType": "address",
          "name": "approver",
          "type": "address"
        }
      ],
      "name": "ERC1155InvalidApprover",
      "type": "error"
    },
    {
      "inputs": [
        {
          "internalType": "uint256",
          "name": "idsLength",
          "type": "uint256"
        },
        {
          "internalType": "uint256",
          "name": "valuesLength",
          "type": "uint256"
        }
      ],
      "name": "ERC1155InvalidArrayLength",
      "type": "error"
    },
    {
      "inputs": [
        {
          "internalType": "address",
          "name": "operator",
          "type": "address"
        }
      ],
      "name": "ERC1155InvalidOperator",
      "type": "error"
    },
    {
      "inputs": [
        {
          "internalType": "address",
          "name": "receiver",
          "type": "address"
        }
      ],
      "name": "ERC1155InvalidReceiver",
      "type": "error"
    },
    {
      "inputs": [
        {
          "internalType": "address",
          "name": "sender",
          "type": "address"
        }
      ],
      "name": "ERC1155InvalidSender",
      "type": "error"
    },
    {
      "inputs": [
        {
          "internalType": "address",
          "name": "operator",
          "type": "address"
        },
        {
          "internalType": "address",
          "name": "owner",
          "type": "address"
        }
      ],
      "name": "ERC1155MissingApprovalForAll",
      "type": "error"
    },
    {
      "anonymous": false,
      "inputs": [
        {
          "indexed": true,
          "internalType": "address",
          "name": "account",
          "type": "address"
        },
        {
          "indexed": true,
          "internalType": "address",
          "name": "operator",
          "type": "address"
        },
        {
          "indexed": false,
          "internalType": "bool",
          "name": "approved",
          "type": "bool"
        }
      ],
      "name": "ApprovalForAll",
      "type": "event"
    },
    {
      "anonymous": false,
      "inputs": [
        {
          "indexed": true,
          "internalType": "address",
          "name": "operator",
          "type": "address"
        },
        {
          "indexed": true,
          "internalType": "address",
          "name": "from",
          "type": "address"
        },
        {
          "indexed": true,
          "internalType": "address",
          "name": "to",
          "type": "address"
        },
        {
          "indexed": false,
          "internalType": "uint256[]",
          "name": "ids",
          "type": "uint256[]"
        },
        {
          "indexed": false,
          "internalType": "uint256[]",
          "name": "values",
          "type": "uint256[]"
        }
      ],
      "name": "TransferBatch",
      "type": "event"
    },
    {
      "anonymous": false,
      "inputs": [
        {
          "indexed": true,
          "internalType": "address",
          "name": "operator",
          "type": "address"
        },
        {
          "indexed": true,
          "internalType": "address",
          "name": "from",
          "type": "address"
        },
        {
          "indexed": true,
          "internalType": "address",
          "name": "to",
          "type": "address"
        },
        {
          "indexed": false,
          "internalType": "uint256",
          "name": "id",
          "type": "uint256"
        },
        {
          "indexed": false,
          "internalType": "uint256",
          "name": "value",
          "type": "uint256"
        }
      ],
      "name": "TransferSingle",
      "type": "event"
    },
    {
      "anonymous": false,
      "inputs": [
        {
          "indexed": false,
          "internalType": "string",
          "name": "value",
          "type": "string"
        },
        {
          "indexed": true,
          "internalType": "uint256",
          "name": "id",
          "type": "uint256"
        }
      ],
      "name": "URI",
      "type": "event"
    },
    {
      "inputs": [
        {
          "internalType": "address",
          "name": "exchangeAddress",
          "type": "address"
        },
        {
          "internalType": "uint256",
          "name": "id",
          "type": "uint256"
        }
      ],
      "name": "addLiquidityToExchange",
      "outputs": [],
      "stateMutability": "nonpayable",
      "type": "function"
    },
    {
      "inputs": [],
      "name": "annualAppreciationRate",
      "outputs": [
        {
          "internalType": "uint256",
          "name": "",
          "type": "uint256"
        }
      ],
      "stateMutability": "view",
      "type": "function"
    },
    {
      "inputs": [
        {
          "internalType": "address",
          "name": "account",
          "type": "address"
        },
        {
          "internalType": "uint256",
          "name": "id",
          "type": "uint256"
        }
      ],
      "name": "balanceOf",
      "outputs": [
        {
          "internalType": "uint256",
          "name": "",
          "type": "uint256"
        }
      ],
      "stateMutability": "view",
      "type": "function"
    },
    {
      "inputs": [
        {
          "internalType": "address[]",
          "name": "accounts",
          "type": "address[]"
        },
        {
          "internalType": "uint256[]",
          "name": "ids",
          "type": "uint256[]"
        }
      ],
      "name": "balanceOfBatch",
      "outputs": [
        {
          "internalType": "uint256[]",
          "name": "",
          "type": "uint256[]"
        }
      ],
      "stateMutability": "view",
      "type": "function"
    },
    {
      "inputs": [
        {
          "internalType": "address",
          "name": "account",
          "type": "address"
        },
        {
          "internalType": "uint256",
          "name": "id",
          "type": "uint256"
        },
        {
          "internalType": "uint256",
          "name": "value",
          "type": "uint256"
        }
      ],
      "name": "burn",
      "outputs": [],
      "stateMutability": "nonpayable",
      "type": "function"
    },
    {
      "inputs": [
        {
          "internalType": "address",
          "name": "account",
          "type": "address"
        },
        {
          "internalType": "uint256[]",
          "name": "ids",
          "type": "uint256[]"
        },
        {
          "internalType": "uint256[]",
          "name": "values",
          "type": "uint256[]"
        }
      ],
      "name": "burnBatch",
      "outputs": [],
      "stateMutability": "nonpayable",
      "type": "function"
    },
    {
      "inputs": [
        {
          "internalType": "address",
          "name": "owner",
          "type": "address"
        }
      ],
      "name": "generatePortfolio",
      "outputs": [
        {
          "internalType": "uint256[]",
          "name": "",
          "type": "uint256[]"
        }
      ],
      "stateMutability": "view",
      "type": "function"
    },
    {
      "inputs": [
        {
          "internalType": "uint256",
          "name": "tokenId",
          "type": "uint256"
        }
      ],
      "name": "getCurrentValue",
      "outputs": [
        {
          "internalType": "uint256",
          "name": "",
          "type": "uint256"
        }
      ],
      "stateMutability": "view",
      "type": "function"
    },
    {
      "inputs": [
        {
          "internalType": "address",
          "name": "account",
          "type": "address"
        },
        {
          "internalType": "address",
          "name": "operator",
          "type": "address"
        }
      ],
      "name": "isApprovedForAll",
      "outputs": [
        {
          "internalType": "bool",
          "name": "",
          "type": "bool"
        }
      ],
      "stateMutability": "view",
      "type": "function"
    },
    {
      "inputs": [
        {
          "internalType": "uint256",
          "name": "id",
          "type": "uint256"
        }
      ],
      "name": "newCask",
      "outputs": [],
      "stateMutability": "nonpayable",
      "type": "function"
    },
    {
      "inputs": [
        {
          "internalType": "address",
          "name": "from",
          "type": "address"
        },
        {
          "internalType": "address",
          "name": "to",
          "type": "address"
        },
        {
          "internalType": "uint256[]",
          "name": "ids",
          "type": "uint256[]"
        },
        {
          "internalType": "uint256[]",
          "name": "values",
          "type": "uint256[]"
        },
        {
          "internalType": "bytes",
          "name": "data",
          "type": "bytes"
        }
      ],
      "name": "safeBatchTransferFrom",
      "outputs": [],
      "stateMutability": "nonpayable",
      "type": "function"
    },
    {
      "inputs": [
        {
          "internalType": "address",
          "name": "from",
          "type": "address"
        },
        {
          "internalType": "address",
          "name": "to",
          "type": "address"
        },
        {
          "internalType": "uint256",
          "name": "id",
          "type": "uint256"
        },
        {
          "internalType": "uint256",
          "name": "value",
          "type": "uint256"
        },
        {
          "internalType": "bytes",
          "name": "data",
          "type": "bytes"
        }
      ],
      "name": "safeTransferFrom",
      "outputs": [],
      "stateMutability": "nonpayable",
      "type": "function"
    },
    {
      "inputs": [
        {
          "internalType": "address",
          "name": "operator",
          "type": "address"
        },
        {
          "internalType": "bool",
          "name": "approved",
          "type": "bool"
        }
      ],
      "name": "setApprovalForAll",
      "outputs": [],
      "stateMutability": "nonpayable",
      "type": "function"
    },
    {
      "inputs": [
        {
          "internalType": "bytes4",
          "name": "interfaceId",
          "type": "bytes4"
        }
      ],
      "name": "supportsInterface",
      "outputs": [
        {
          "internalType": "bool",
          "name": "",
          "type": "bool"
        }
      ],
      "stateMutability": "view",
      "type": "function"
    },
    {
      "inputs": [
        {
          "internalType": "uint256",
          "name": "",
          "type": "uint256"
        }
      ],
      "name": "uri",
      "outputs": [
        {
          "internalType": "string",
          "name": "",
          "type": "string"
        }
      ],
      "stateMutability": "view",
      "type": "function"
    }
  ],
  "bytecode": "0x60806040523480156200001157600080fd5b506040805160208101909152600081526200002c8162000033565b50620001b8565b6002620000418282620000ec565b5050565b634e487b7160e01b600052604160045260246000fd5b600181811c908216806200007057607f821691505b6020821081036200009157634e487b7160e01b600052602260045260246000fd5b50919050565b601f821115620000e7576000816000526020600020601f850160051c81016020861015620000c25750805b601f850160051c820191505b81811015620000e357828155600101620000ce565b5050505b505050565b81516001600160401b0381111562000108576200010862000045565b62000120816200011984546200005b565b8462000097565b602080601f8311600181146200015857600084156200013f5750858301515b600019600386901b1c1916600185901b178555620000e3565b600085815260208120601f198616915b82811015620001895788860151825594840194600190910190840162000168565b5085821015620001a85787850151600019600388901b60f8161c191681555b5050505050600190811b01905550565b61195180620001c86000396000f3fe608060405234801561001057600080fd5b50600436106100f45760003560e01c80636b20c45411610097578063e985e9c511610066578063e985e9c5146101fe578063efba0ad114610211578063f242432a14610224578063f5298aca1461023757600080fd5b80636b20c454146101bd578063913a9fcc146101d0578063a0046b06146101e3578063a22cb465146101eb57600080fd5b80632eb2c2d6116100d35780632eb2c2d6146101625780633fcad964146101775780634e1273f41461018a578063519534ea146101aa57600080fd5b8062fdd58e146100f957806301ffc9a71461011f5780630e89341c14610142575b600080fd5b61010c610107366004611157565b61024a565b6040519081526020015b60405180910390f35b61013261012d366004611199565b610272565b6040519015158152602001610116565b6101556101503660046111bd565b6102c2565b604051610116919061121c565b610175610170366004611379565b610356565b005b61010c6101853660046111bd565b6103c2565b61019d610198366004611427565b610476565b6040516101169190611525565b61019d6101b8366004611538565b610543565b6101756101cb366004611555565b610668565b6101756101de3660046111bd565b6106cc565b61010c600581565b6101756101f93660046115cb565b610820565b61013261020c366004611609565b61082f565b61017561021f366004611157565b61085d565b610175610232366004611637565b6109a4565b6101756102453660046116a0565b610a03565b6000818152602081815260408083206001600160a01b03861684529091529020545b92915050565b60006001600160e01b03198216636cdb3d1360e11b14806102a357506001600160e01b031982166303a24d0760e21b145b8061026c57506301ffc9a760e01b6001600160e01b031983161461026c565b6060600280546102d1906116d5565b80601f01602080910402602001604051908101604052809291908181526020018280546102fd906116d5565b801561034a5780601f1061031f5761010080835404028352916020019161034a565b820191906000526020600020905b81548152906001019060200180831161032d57829003601f168201915b50505050509050919050565b336001600160a01b03861681148015906103775750610375868261082f565b155b156103ad5760405163711bec9160e11b81526001600160a01b038083166004830152871660248201526044015b60405180910390fd5b6103ba8686868686610a39565b505050505050565b600081815260036020526040812054810361041f5760405162461bcd60e51b815260206004820152601b60248201527f4361736b20686173206e6f74206265656e20746f6b656e697a6564000000000060448201526064016103a4565b6000828152600360205260408120546301e133809061043e9042611725565b6104489190611738565b90506000606461045983600561175a565b6104639190611738565b61046e906001611771565b949350505050565b606081518351146104a75781518351604051635b05999160e01b8152600481019290925260248201526044016103a4565b6000835167ffffffffffffffff8111156104c3576104c361122f565b6040519080825280602002602001820160405280156104ec578160200160208202803683370190505b50905060005b845181101561053b576020808202860101516105169060208084028701015161024a565b82828151811061052857610528611784565b60209081029190910101526001016104f2565b509392505050565b60606000805b60045481101561059857600061057c856004848154811061056c5761056c611784565b906000526020600020015461024a565b1115610590578161058c8161179a565b9250505b600101610549565b5060008167ffffffffffffffff8111156105b4576105b461122f565b6040519080825280602002602001820160405280156105dd578160200160208202803683370190505b5090506000805b60045481101561065e576000610607876004848154811061056c5761056c611784565b1115610656576004818154811061062057610620611784565b906000526020600020015483838151811061063d5761063d611784565b6020908102919091010152816106528161179a565b9250505b6001016105e4565b5090949350505050565b6001600160a01b03831633148015906106885750610686833361082f565b155b156106bc57335b60405163711bec9160e11b81526001600160a01b03918216600482015290841660248201526044016103a4565b6106c7838383610aa0565b505050565b6040805180820190915260018152600960f91b60208201526103e86106f333848385610ae6565b60405163968bd69160e01b81523060048201819052731d2f0da169ceb9fc7b3144628db156f3f6c60dbe60248301819052600a60448401819052606484018790527376b65d9ecc388e34e8aea2f8796131bf9a4c3f2993849063968bd69190608401600060405180830381600087803b15801561076f57600080fd5b505af1158015610783573d6000803e3d6000fd5b505060405163bcb9bfa760e01b81526001600160a01b038681166004830152858116602483015260448201859052606482018b9052600093508716915063bcb9bfa790608401602060405180830381865afa1580156107e6573d6000803e3d6000fd5b505050506040513d601f19601f8201168201806040525081019061080a91906117b3565b9050610816818961085d565b5050505050505050565b61082b338383610b43565b5050565b6001600160a01b03918216600090815260016020908152604080832093909416825291909152205460ff1690565b604080516001808252818301909252839160009190602080830190803683375050604080516001808252818301909252929350600092915060208083019080368337505060408051600180825281830190925292935060009291506020808301908036833701905050905084836000815181106108dc576108dc611784565b6020026020010181815250506103e8826000815181106108fe576108fe611784565b6020026020010181815250506103e88160008151811061092057610920611784565b60209081029190910101526001600160a01b0384166382da2b733385858561094a42610bb8611771565b6040518663ffffffff1660e01b815260040161096a9594939291906117d0565b600060405180830381600087803b15801561098457600080fd5b505af1158015610998573d6000803e3d6000fd5b50505050505050505050565b336001600160a01b03861681148015906109c557506109c3868261082f565b155b156109f65760405163711bec9160e11b81526001600160a01b038083166004830152871660248201526044016103a4565b6103ba8686868686610bd9565b6001600160a01b0383163314801590610a235750610a21833361082f565b155b15610a2e573361068f565b6106c7838383610c67565b6001600160a01b038416610a6357604051632bfa23e760e11b8152600060048201526024016103a4565b6001600160a01b038516610a8c57604051626a0d4560e21b8152600060048201526024016103a4565b610a998585858585610ccb565b5050505050565b6001600160a01b038316610ac957604051626a0d4560e21b8152600060048201526024016103a4565b6106c7836000848460405180602001604052806000815250610ccb565b6001600160a01b038416610b1057604051632bfa23e760e11b8152600060048201526024016103a4565b604080516001808252602082018690528183019081526060820185905260808201909252906103ba600087848487610ccb565b6001600160a01b038216610b6c5760405162ced3e160e81b8152600060048201526024016103a4565b6001600160a01b03838116600081815260016020908152604080832094871680845294825291829020805460ff191686151590811790915591519182527f17307eab39ab6107e8899845ad3d59bd9653f200f220920489ca2b5937696c31910160405180910390a3505050565b6001600160a01b038416610c0357604051632bfa23e760e11b8152600060048201526024016103a4565b6001600160a01b038516610c2c57604051626a0d4560e21b8152600060048201526024016103a4565b60408051600180825260208201869052818301908152606082018590526080820190925290610c5e8787848487610ccb565b50505050505050565b6001600160a01b038316610c9057604051626a0d4560e21b8152600060048201526024016103a4565b604080516001808252602082018590528183019081526060820184905260a08201909252600060808201818152919291610a99918791859085905b610cd785858585610d1e565b6001600160a01b03841615610a995782513390600103610d105760208481015190840151610d09838989858589610f32565b50506103ba565b6103ba818787878787611056565b8051825114610d4d5781518151604051635b05999160e01b8152600481019290925260248201526044016103a4565b3360005b8351811015610e53576020818102858101820151908501909101516001600160a01b03881615610e04576000828152602081815260408083206001600160a01b038c16845290915290205481811015610ddd576040516303dee4c560e01b81526001600160a01b038a1660048201526024810182905260448101839052606481018490526084016103a4565b6000838152602081815260408083206001600160a01b038d16845290915290209082900390555b6001600160a01b03871615610e49576000828152602081815260408083206001600160a01b038b16845290915281208054839290610e43908490611771565b90915550505b5050600101610d51565b508251600103610ed45760208301516000906020840151909150856001600160a01b0316876001600160a01b0316846001600160a01b03167fc3d58168c5ae7397731d063d5bbf3d657854427343f4c083240f7aacaa2d0f628585604051610ec5929190918252602082015260400190565b60405180910390a45050610a99565b836001600160a01b0316856001600160a01b0316826001600160a01b03167f4a39dc06d4c0dbc64b70af90fd698a233a518aa5d07e595d983b8c0526c8f7fb8686604051610f2392919061182d565b60405180910390a45050505050565b6001600160a01b0384163b156103ba5760405163f23a6e6160e01b81526001600160a01b0385169063f23a6e6190610f76908990899088908890889060040161185b565b6020604051808303816000875af1925050508015610fb1575060408051601f3d908101601f19168201909252610fae918101906118a0565b60015b61101a573d808015610fdf576040519150601f19603f3d011682016040523d82523d6000602084013e610fe4565b606091505b50805160000361101257604051632bfa23e760e11b81526001600160a01b03861660048201526024016103a4565b805181602001fd5b6001600160e01b0319811663f23a6e6160e01b14610c5e57604051632bfa23e760e11b81526001600160a01b03861660048201526024016103a4565b6001600160a01b0384163b156103ba5760405163bc197c8160e01b81526001600160a01b0385169063bc197c819061109a90899089908890889088906004016118bd565b6020604051808303816000875af19250505080156110d5575060408051601f3d908101601f191682019092526110d2918101906118a0565b60015b611103573d808015610fdf576040519150601f19603f3d011682016040523d82523d6000602084013e610fe4565b6001600160e01b0319811663bc197c8160e01b14610c5e57604051632bfa23e760e11b81526001600160a01b03861660048201526024016103a4565b6001600160a01b038116811461115457600080fd5b50565b6000806040838503121561116a57600080fd5b82356111758161113f565b946020939093013593505050565b6001600160e01b03198116811461115457600080fd5b6000602082840312156111ab57600080fd5b81356111b681611183565b9392505050565b6000602082840312156111cf57600080fd5b5035919050565b6000815180845260005b818110156111fc576020818501810151868301820152016111e0565b506000602082860101526020601f19601f83011685010191505092915050565b6020815260006111b660208301846111d6565b634e487b7160e01b600052604160045260246000fd5b604051601f8201601f1916810167ffffffffffffffff8111828210171561126e5761126e61122f565b604052919050565b600067ffffffffffffffff8211156112905761129061122f565b5060051b60200190565b600082601f8301126112ab57600080fd5b813560206112c06112bb83611276565b611245565b8083825260208201915060208460051b8701019350868411156112e257600080fd5b602086015b848110156112fe57803583529183019183016112e7565b509695505050505050565b600082601f83011261131a57600080fd5b813567ffffffffffffffff8111156113345761133461122f565b611347601f8201601f1916602001611245565b81815284602083860101111561135c57600080fd5b816020850160208301376000918101602001919091529392505050565b600080600080600060a0868803121561139157600080fd5b853561139c8161113f565b945060208601356113ac8161113f565b9350604086013567ffffffffffffffff808211156113c957600080fd5b6113d589838a0161129a565b945060608801359150808211156113eb57600080fd5b6113f789838a0161129a565b9350608088013591508082111561140d57600080fd5b5061141a88828901611309565b9150509295509295909350565b6000806040838503121561143a57600080fd5b823567ffffffffffffffff8082111561145257600080fd5b818501915085601f83011261146657600080fd5b813560206114766112bb83611276565b82815260059290921b8401810191818101908984111561149557600080fd5b948201945b838610156114bc5785356114ad8161113f565b8252948201949082019061149a565b965050860135925050808211156114d257600080fd5b506114df8582860161129a565b9150509250929050565b60008151808452602080850194506020840160005b8381101561151a578151875295820195908201906001016114fe565b509495945050505050565b6020815260006111b660208301846114e9565b60006020828403121561154a57600080fd5b81356111b68161113f565b60008060006060848603121561156a57600080fd5b83356115758161113f565b9250602084013567ffffffffffffffff8082111561159257600080fd5b61159e8783880161129a565b935060408601359150808211156115b457600080fd5b506115c18682870161129a565b9150509250925092565b600080604083850312156115de57600080fd5b82356115e98161113f565b9150602083013580151581146115fe57600080fd5b809150509250929050565b6000806040838503121561161c57600080fd5b82356116278161113f565b915060208301356115fe8161113f565b600080600080600060a0868803121561164f57600080fd5b853561165a8161113f565b9450602086013561166a8161113f565b93506040860135925060608601359150608086013567ffffffffffffffff81111561169457600080fd5b61141a88828901611309565b6000806000606084860312156116b557600080fd5b83356116c08161113f565b95602085013595506040909401359392505050565b600181811c908216806116e957607f821691505b60208210810361170957634e487b7160e01b600052602260045260246000fd5b50919050565b634e487b7160e01b600052601160045260246000fd5b8181038181111561026c5761026c61170f565b60008261175557634e487b7160e01b600052601260045260246000fd5b500490565b808202811582820484141761026c5761026c61170f565b8082018082111561026c5761026c61170f565b634e487b7160e01b600052603260045260246000fd5b6000600182016117ac576117ac61170f565b5060010190565b6000602082840312156117c557600080fd5b81516111b68161113f565b6001600160a01b038616815260a0602082018190526000906117f4908301876114e9565b828103604084015261180681876114e9565b9050828103606084015261181a81866114e9565b9150508260808301529695505050505050565b60408152600061184060408301856114e9565b828103602084015261185281856114e9565b95945050505050565b6001600160a01b03868116825285166020820152604081018490526060810183905260a060808201819052600090611895908301846111d6565b979650505050505050565b6000602082840312156118b257600080fd5b81516111b681611183565b6001600160a01b0386811682528516602082015260a0604082018190526000906118e9908301866114e9565b82810360608401526118fb81866114e9565b9050828103608084015261190f81856111d6565b9897505050505050505056fea26469706673582212204ac765cd328d741426c687610350d8718e8ae0386f18fba7a56a06a838e07e3864736f6c63430008180033",
  "linkReferences": {},
  "deployedLinkReferences": {}
}