{
  "_format": "hh-sol-artifact-1",
  "contractName": "WhiskySwapExchange",
  "sourceName": "contracts/exchange/WhiskySwapExchange.sol",
  "abi": [
    {
      "inputs": [
        {
          "internalType": "address",
          "name": "_tokenAddr",
          "type": "address"
        },
        {
          "internalType": "address",
          "name": "_currencyAddr",
          "type": "address"
        },
        {
          "internalType": "uint256",
          "name": "_lpFee",
          "type": "uint256"
        }
      ],
      "stateMutability": "nonpayable",
      "type": "constructor"
    },
    {
      "anonymous": false,
      "inputs": [
        {
          "indexed": true,
          "internalType": "address",
          "name": "_owner",
          "type": "address"
        },
        {
          "indexed": true,
          "internalType": "address",
          "name": "_operator",
          "type": "address"
        },
        {
          "indexed": false,
          "internalType": "bool",
          "name": "_approved",
          "type": "bool"
        }
      ],
      "name": "ApprovalForAll",
      "type": "event"
    },
    {
      "anonymous": false,
      "inputs": [
        {
          "indexed": true,
          "internalType": "address",
          "name": "buyer",
          "type": "address"
        },
        {
          "indexed": true,
          "internalType": "address",
          "name": "recipient",
          "type": "address"
        },
        {
          "indexed": false,
          "internalType": "uint256[]",
          "name": "tokensSoldIds",
          "type": "uint256[]"
        },
        {
          "indexed": false,
          "internalType": "uint256[]",
          "name": "tokensSoldAmounts",
          "type": "uint256[]"
        },
        {
          "indexed": false,
          "internalType": "uint256[]",
          "name": "currencyBoughtAmounts",
          "type": "uint256[]"
        },
        {
          "indexed": false,
          "internalType": "address[]",
          "name": "extraFeeRecipients",
          "type": "address[]"
        },
        {
          "indexed": false,
          "internalType": "uint256[]",
          "name": "extraFeeAmounts",
          "type": "uint256[]"
        }
      ],
      "name": "CurrencyPurchase",
      "type": "event"
    },
    {
      "anonymous": false,
      "inputs": [
        {
          "indexed": true,
          "internalType": "address",
          "name": "provider",
          "type": "address"
        },
        {
          "indexed": false,
          "internalType": "uint256[]",
          "name": "tokenIds",
          "type": "uint256[]"
        },
        {
          "indexed": false,
          "internalType": "uint256[]",
          "name": "tokenAmounts",
          "type": "uint256[]"
        },
        {
          "indexed": false,
          "internalType": "uint256[]",
          "name": "currencyAmounts",
          "type": "uint256[]"
        }
      ],
      "name": "LiquidityAdded",
      "type": "event"
    },
    {
      "anonymous": false,
      "inputs": [
        {
          "indexed": true,
          "internalType": "address",
          "name": "provider",
          "type": "address"
        },
        {
          "indexed": false,
          "internalType": "uint256[]",
          "name": "tokenIds",
          "type": "uint256[]"
        },
        {
          "indexed": false,
          "internalType": "uint256[]",
          "name": "tokenAmounts",
          "type": "uint256[]"
        },
        {
          "components": [
            {
              "internalType": "uint256",
              "name": "currencyAmount",
              "type": "uint256"
            },
            {
              "internalType": "uint256",
              "name": "soldTokenNumerator",
              "type": "uint256"
            },
            {
              "internalType": "uint256",
              "name": "boughtCurrencyNumerator",
              "type": "uint256"
            },
            {
              "internalType": "uint256",
              "name": "totalSupply",
              "type": "uint256"
            }
          ],
          "indexed": false,
          "internalType": "struct IWhiskySwapExchange.LiquidityRemovedEventObj[]",
          "name": "details",
          "type": "tuple[]"
        }
      ],
      "name": "LiquidityRemoved",
      "type": "event"
    },
    {
      "anonymous": false,
      "inputs": [
        {
          "indexed": true,
          "internalType": "address",
          "name": "royaltyRecipient",
          "type": "address"
        },
        {
          "indexed": false,
          "internalType": "uint256",
          "name": "royaltyFee",
          "type": "uint256"
        }
      ],
      "name": "RoyaltyChanged",
      "type": "event"
    },
    {
      "anonymous": false,
      "inputs": [
        {
          "indexed": true,
          "internalType": "address",
          "name": "buyer",
          "type": "address"
        },
        {
          "indexed": true,
          "internalType": "address",
          "name": "recipient",
          "type": "address"
        },
        {
          "indexed": false,
          "internalType": "uint256[]",
          "name": "tokensBoughtIds",
          "type": "uint256[]"
        },
        {
          "indexed": false,
          "internalType": "uint256[]",
          "name": "tokensBoughtAmounts",
          "type": "uint256[]"
        },
        {
          "indexed": false,
          "internalType": "uint256[]",
          "name": "currencySoldAmounts",
          "type": "uint256[]"
        },
        {
          "indexed": false,
          "internalType": "address[]",
          "name": "extraFeeRecipients",
          "type": "address[]"
        },
        {
          "indexed": false,
          "internalType": "uint256[]",
          "name": "extraFeeAmounts",
          "type": "uint256[]"
        }
      ],
      "name": "TokensPurchase",
      "type": "event"
    },
    {
      "anonymous": false,
      "inputs": [
        {
          "indexed": true,
          "internalType": "address",
          "name": "_operator",
          "type": "address"
        },
        {
          "indexed": true,
          "internalType": "address",
          "name": "_from",
          "type": "address"
        },
        {
          "indexed": true,
          "internalType": "address",
          "name": "_to",
          "type": "address"
        },
        {
          "indexed": false,
          "internalType": "uint256[]",
          "name": "_ids",
          "type": "uint256[]"
        },
        {
          "indexed": false,
          "internalType": "uint256[]",
          "name": "_amounts",
          "type": "uint256[]"
        }
      ],
      "name": "TransferBatch",
      "type": "event"
    },
    {
      "anonymous": false,
      "inputs": [
        {
          "indexed": true,
          "internalType": "address",
          "name": "_operator",
          "type": "address"
        },
        {
          "indexed": true,
          "internalType": "address",
          "name": "_from",
          "type": "address"
        },
        {
          "indexed": true,
          "internalType": "address",
          "name": "_to",
          "type": "address"
        },
        {
          "indexed": false,
          "internalType": "uint256",
          "name": "_id",
          "type": "uint256"
        },
        {
          "indexed": false,
          "internalType": "uint256",
          "name": "_amount",
          "type": "uint256"
        }
      ],
      "name": "TransferSingle",
      "type": "event"
    },
    {
      "stateMutability": "nonpayable",
      "type": "fallback"
    },
    {
      "inputs": [
        {
          "internalType": "address",
          "name": "_provider",
          "type": "address"
        },
        {
          "internalType": "uint256[]",
          "name": "_tokenIds",
          "type": "uint256[]"
        },
        {
          "internalType": "uint256[]",
          "name": "_tokenAmounts",
          "type": "uint256[]"
        },
        {
          "internalType": "uint256[]",
          "name": "_maxCurrency",
          "type": "uint256[]"
        },
        {
          "internalType": "uint256",
          "name": "_deadline",
          "type": "uint256"
        }
      ],
      "name": "_addLiquidity",
      "outputs": [],
      "stateMutability": "nonpayable",
      "type": "function"
    },
    {
      "inputs": [
        {
          "internalType": "address",
          "name": "_owner",
          "type": "address"
        },
        {
          "internalType": "uint256",
          "name": "_id",
          "type": "uint256"
        }
      ],
      "name": "balanceOf",
      "outputs": [
        {
          "internalType": "uint256",
          "name": "",
          "type": "uint256"
        }
      ],
      "stateMutability": "view",
      "type": "function"
    },
    {
      "inputs": [
        {
          "internalType": "address[]",
          "name": "_owners",
          "type": "address[]"
        },
        {
          "internalType": "uint256[]",
          "name": "_ids",
          "type": "uint256[]"
        }
      ],
      "name": "balanceOfBatch",
      "outputs": [
        {
          "internalType": "uint256[]",
          "name": "",
          "type": "uint256[]"
        }
      ],
      "stateMutability": "view",
      "type": "function"
    },
    {
      "inputs": [
        {
          "internalType": "uint256[]",
          "name": "_tokenIds",
          "type": "uint256[]"
        },
        {
          "internalType": "uint256[]",
          "name": "_tokensBoughtAmounts",
          "type": "uint256[]"
        },
        {
          "internalType": "uint256",
          "name": "_maxCurrency",
          "type": "uint256"
        },
        {
          "internalType": "uint256",
          "name": "_deadline",
          "type": "uint256"
        },
        {
          "internalType": "address",
          "name": "_recipient",
          "type": "address"
        },
        {
          "internalType": "address[]",
          "name": "_extraFeeRecipients",
          "type": "address[]"
        },
        {
          "internalType": "uint256[]",
          "name": "_extraFeeAmounts",
          "type": "uint256[]"
        }
      ],
      "name": "buyTokens",
      "outputs": [
        {
          "internalType": "uint256[]",
          "name": "",
          "type": "uint256[]"
        }
      ],
      "stateMutability": "nonpayable",
      "type": "function"
    },
    {
      "inputs": [
        {
          "internalType": "uint256",
          "name": "_assetBoughtAmount",
          "type": "uint256"
        },
        {
          "internalType": "uint256",
          "name": "_assetSoldReserve",
          "type": "uint256"
        },
        {
          "internalType": "uint256",
          "name": "_assetBoughtReserve",
          "type": "uint256"
        }
      ],
      "name": "getBuyPrice",
      "outputs": [
        {
          "internalType": "uint256",
          "name": "price",
          "type": "uint256"
        }
      ],
      "stateMutability": "view",
      "type": "function"
    },
    {
      "inputs": [
        {
          "internalType": "uint256",
          "name": "_tokenId",
          "type": "uint256"
        },
        {
          "internalType": "uint256",
          "name": "_assetBoughtAmount",
          "type": "uint256"
        },
        {
          "internalType": "uint256",
          "name": "_assetSoldReserve",
          "type": "uint256"
        },
        {
          "internalType": "uint256",
          "name": "_assetBoughtReserve",
          "type": "uint256"
        }
      ],
      "name": "getBuyPriceWithRoyalty",
      "outputs": [
        {
          "internalType": "uint256",
          "name": "price",
          "type": "uint256"
        }
      ],
      "stateMutability": "view",
      "type": "function"
    },
    {
      "inputs": [],
      "name": "getCurrencyInfo",
      "outputs": [
        {
          "internalType": "address",
          "name": "",
          "type": "address"
        }
      ],
      "stateMutability": "view",
      "type": "function"
    },
    {
      "inputs": [
        {
          "internalType": "uint256[]",
          "name": "_ids",
          "type": "uint256[]"
        }
      ],
      "name": "getCurrencyReserves",
      "outputs": [
        {
          "internalType": "uint256[]",
          "name": "",
          "type": "uint256[]"
        }
      ],
      "stateMutability": "view",
      "type": "function"
    },
    {
      "inputs": [],
      "name": "getFactoryAddress",
      "outputs": [
        {
          "internalType": "address",
          "name": "",
          "type": "address"
        }
      ],
      "stateMutability": "view",
      "type": "function"
    },
    {
      "inputs": [],
      "name": "getGlobalRoyaltyFee",
      "outputs": [
        {
          "internalType": "uint256",
          "name": "",
          "type": "uint256"
        }
      ],
      "stateMutability": "view",
      "type": "function"
    },
    {
      "inputs": [],
      "name": "getGlobalRoyaltyRecipient",
      "outputs": [
        {
          "internalType": "address",
          "name": "",
          "type": "address"
        }
      ],
      "stateMutability": "view",
      "type": "function"
    },
    {
      "inputs": [],
      "name": "getLPFee",
      "outputs": [
        {
          "internalType": "uint256",
          "name": "",
          "type": "uint256"
        }
      ],
      "stateMutability": "view",
      "type": "function"
    },
    {
      "inputs": [
        {
          "internalType": "uint256[]",
          "name": "_ids",
          "type": "uint256[]"
        },
        {
          "internalType": "uint256[]",
          "name": "_tokensBought",
          "type": "uint256[]"
        }
      ],
      "name": "getPrice_currencyToToken",
      "outputs": [
        {
          "internalType": "uint256[]",
          "name": "",
          "type": "uint256[]"
        }
      ],
      "stateMutability": "view",
      "type": "function"
    },
    {
      "inputs": [
        {
          "internalType": "uint256[]",
          "name": "_ids",
          "type": "uint256[]"
        },
        {
          "internalType": "uint256[]",
          "name": "_tokensSold",
          "type": "uint256[]"
        }
      ],
      "name": "getPrice_tokenToCurrency",
      "outputs": [
        {
          "internalType": "uint256[]",
          "name": "",
          "type": "uint256[]"
        }
      ],
      "stateMutability": "view",
      "type": "function"
    },
    {
      "inputs": [
        {
          "internalType": "address",
          "name": "_royaltyRecipient",
          "type": "address"
        }
      ],
      "name": "getRoyalties",
      "outputs": [
        {
          "internalType": "uint256",
          "name": "",
          "type": "uint256"
        }
      ],
      "stateMutability": "view",
      "type": "function"
    },
    {
      "inputs": [
        {
          "internalType": "address",
          "name": "_royaltyRecipient",
          "type": "address"
        }
      ],
      "name": "getRoyaltiesNumerator",
      "outputs": [
        {
          "internalType": "uint256",
          "name": "",
          "type": "uint256"
        }
      ],
      "stateMutability": "view",
      "type": "function"
    },
    {
      "inputs": [
        {
          "internalType": "uint256",
          "name": "_tokenId",
          "type": "uint256"
        },
        {
          "internalType": "uint256",
          "name": "_cost",
          "type": "uint256"
        }
      ],
      "name": "getRoyaltyInfo",
      "outputs": [
        {
          "internalType": "address",
          "name": "recipient",
          "type": "address"
        },
        {
          "internalType": "uint256",
          "name": "royalty",
          "type": "uint256"
        }
      ],
      "stateMutability": "view",
      "type": "function"
    },
    {
      "inputs": [
        {
          "internalType": "uint256",
          "name": "_assetSoldAmount",
          "type": "uint256"
        },
        {
          "internalType": "uint256",
          "name": "_assetSoldReserve",
          "type": "uint256"
        },
        {
          "internalType": "uint256",
          "name": "_assetBoughtReserve",
          "type": "uint256"
        }
      ],
      "name": "getSellPrice",
      "outputs": [
        {
          "internalType": "uint256",
          "name": "price",
          "type": "uint256"
        }
      ],
      "stateMutability": "view",
      "type": "function"
    },
    {
      "inputs": [
        {
          "internalType": "uint256",
          "name": "_tokenId",
          "type": "uint256"
        },
        {
          "internalType": "uint256",
          "name": "_assetSoldAmount",
          "type": "uint256"
        },
        {
          "internalType": "uint256",
          "name": "_assetSoldReserve",
          "type": "uint256"
        },
        {
          "internalType": "uint256",
          "name": "_assetBoughtReserve",
          "type": "uint256"
        }
      ],
      "name": "getSellPriceWithRoyalty",
      "outputs": [
        {
          "internalType": "uint256",
          "name": "price",
          "type": "uint256"
        }
      ],
      "stateMutability": "view",
      "type": "function"
    },
    {
      "inputs": [],
      "name": "getTokenAddress",
      "outputs": [
        {
          "internalType": "address",
          "name": "",
          "type": "address"
        }
      ],
      "stateMutability": "view",
      "type": "function"
    },
    {
      "inputs": [
        {
          "internalType": "uint256[]",
          "name": "_ids",
          "type": "uint256[]"
        }
      ],
      "name": "getTotalSupply",
      "outputs": [
        {
          "internalType": "uint256[]",
          "name": "",
          "type": "uint256[]"
        }
      ],
      "stateMutability": "view",
      "type": "function"
    },
    {
      "inputs": [
        {
          "internalType": "address",
          "name": "_owner",
          "type": "address"
        },
        {
          "internalType": "address",
          "name": "_operator",
          "type": "address"
        }
      ],
      "name": "isApprovedForAll",
      "outputs": [
        {
          "internalType": "bool",
          "name": "isOperator",
          "type": "bool"
        }
      ],
      "stateMutability": "view",
      "type": "function"
    },
    {
      "inputs": [
        {
          "internalType": "address",
          "name": "",
          "type": "address"
        },
        {
          "internalType": "address",
          "name": "_from",
          "type": "address"
        },
        {
          "internalType": "uint256[]",
          "name": "_ids",
          "type": "uint256[]"
        },
        {
          "internalType": "uint256[]",
          "name": "_amounts",
          "type": "uint256[]"
        },
        {
          "internalType": "bytes",
          "name": "_data",
          "type": "bytes"
        }
      ],
      "name": "onERC1155BatchReceived",
      "outputs": [
        {
          "internalType": "bytes4",
          "name": "",
          "type": "bytes4"
        }
      ],
      "stateMutability": "nonpayable",
      "type": "function"
    },
    {
      "inputs": [
        {
          "internalType": "address",
          "name": "_operator",
          "type": "address"
        },
        {
          "internalType": "address",
          "name": "_from",
          "type": "address"
        },
        {
          "internalType": "uint256",
          "name": "_id",
          "type": "uint256"
        },
        {
          "internalType": "uint256",
          "name": "_amount",
          "type": "uint256"
        },
        {
          "internalType": "bytes",
          "name": "_data",
          "type": "bytes"
        }
      ],
      "name": "onERC1155Received",
      "outputs": [
        {
          "internalType": "bytes4",
          "name": "",
          "type": "bytes4"
        }
      ],
      "stateMutability": "nonpayable",
      "type": "function"
    },
    {
      "inputs": [
        {
          "internalType": "address",
          "name": "_from",
          "type": "address"
        },
        {
          "internalType": "address",
          "name": "_to",
          "type": "address"
        },
        {
          "internalType": "uint256[]",
          "name": "_ids",
          "type": "uint256[]"
        },
        {
          "internalType": "uint256[]",
          "name": "_amounts",
          "type": "uint256[]"
        },
        {
          "internalType": "bytes",
          "name": "_data",
          "type": "bytes"
        }
      ],
      "name": "safeBatchTransferFrom",
      "outputs": [],
      "stateMutability": "nonpayable",
      "type": "function"
    },
    {
      "inputs": [
        {
          "internalType": "address",
          "name": "_from",
          "type": "address"
        },
        {
          "internalType": "address",
          "name": "_to",
          "type": "address"
        },
        {
          "internalType": "uint256",
          "name": "_id",
          "type": "uint256"
        },
        {
          "internalType": "uint256",
          "name": "_amount",
          "type": "uint256"
        },
        {
          "internalType": "bytes",
          "name": "_data",
          "type": "bytes"
        }
      ],
      "name": "safeTransferFrom",
      "outputs": [],
      "stateMutability": "nonpayable",
      "type": "function"
    },
    {
      "inputs": [
        {
          "internalType": "address",
          "name": "_royaltyRecipient",
          "type": "address"
        }
      ],
      "name": "sendRoyalties",
      "outputs": [],
      "stateMutability": "nonpayable",
      "type": "function"
    },
    {
      "inputs": [
        {
          "internalType": "address",
          "name": "_operator",
          "type": "address"
        },
        {
          "internalType": "bool",
          "name": "_approved",
          "type": "bool"
        }
      ],
      "name": "setApprovalForAll",
      "outputs": [],
      "stateMutability": "nonpayable",
      "type": "function"
    },
    {
      "inputs": [
        {
          "internalType": "uint256",
          "name": "_fee",
          "type": "uint256"
        },
        {
          "internalType": "address",
          "name": "_recipient",
          "type": "address"
        }
      ],
      "name": "setRoyaltyInfo",
      "outputs": [],
      "stateMutability": "nonpayable",
      "type": "function"
    },
    {
      "inputs": [
        {
          "internalType": "bytes4",
          "name": "interfaceID",
          "type": "bytes4"
        }
      ],
      "name": "supportsInterface",
      "outputs": [
        {
          "internalType": "bool",
          "name": "",
          "type": "bool"
        }
      ],
      "stateMutability": "pure",
      "type": "function"
    },
    {
      "inputs": [
        {
          "internalType": "uint256",
          "name": "_id",
          "type": "uint256"
        }
      ],
      "name": "uri",
      "outputs": [
        {
          "internalType": "string",
          "name": "",
          "type": "string"
        }
      ],
      "stateMutability": "view",
      "type": "function"
    }
  ],
  "bytecode": "0x6101206040523480156200001257600080fd5b5060405162004cd138038062004cd1833981016040819052620000359162000193565b6001600160a01b038316158015906200005657506001600160a01b03821615155b620000915760405162461bcd60e51b81526020600482015260066024820152654e453230233160d01b60448201526064015b60405180910390fd5b6103e8811115620000ce5760405162461bcd60e51b815260206004820152600660248201526527229918119960d11b604482015260640162000088565b3360c0526001600160a01b03838116608052821660a052620000f3816103e8620001d4565b60e0526040516301ffc9a760e01b815263152a902d60e11b60048201526001600160a01b038416906301ffc9a790602401602060405180830381865afa92505050801562000160575060408051601f3d908101601f191682019092526200015d91810190620001fc565b60015b156200016d571515610100525b50505062000227565b80516001600160a01b03811681146200018e57600080fd5b919050565b600080600060608486031215620001a957600080fd5b620001b48462000176565b9250620001c46020850162000176565b9150604084015190509250925092565b81810381811115620001f657634e487b7160e01b600052601160045260246000fd5b92915050565b6000602082840312156200020f57600080fd5b815180151581146200022057600080fd5b9392505050565b60805160a05160c05160e051610100516149d9620002f86000396000611a3c01526000818161095b01528181610b2401526120510152600081816103fa01526105d901526000818161034f01528181610f9f015281816112b2015281816117fa01528181611c0301528181612d95015281816131a201526135390152600081816102890152818161108a0152818161134f015281816114d90152818161168d015281816118f301528181611a7d015281816123c3015281816125e1015281816131df01526134be01526149d96000f3fe608060405234801561001057600080fd5b50600436106101e35760003560e01c8063863ed3001161010f578063be571468116100a2578063e985e9c511610071578063e985e9c5146104d9578063f23a6e61146104ec578063f242432a146104ff578063fca16c3b14610512576101e3565b8063be57146814610470578063c7ed115e14610483578063d93e8aaa146104b5578063e523d3fc146104c8576101e3565b8063a9c2e36c116100de578063a9c2e36c146103f8578063aeaad2081461041e578063b5de3d1414610431578063bc197c8114610444576101e3565b8063863ed300146103ac578063a22cb465146103bf578063a6313875146103d2578063a7380f6e146103e5576101e3565b80632bef5e381161018757806346adf5ca1161015657806346adf5ca1461034d5780634e1273f4146103735780636ee8e1341461038657806382da2b7314610399576101e3565b80632bef5e38146102f45780632eb2c2d6146103075780633750a8bd1461031c57806338b49e2d14610324576101e3565b80630e89341c116101c35780630e89341c1461026757806310fe9ae81461028757806314556a56146102c1578063209b96c5146102d4576101e3565b80628e09d81461021a578062fdd58e1461023157806301ffc9a714610244575b60405162461bcd60e51b81526020600482015260076024820152664e45323023323960c81b60448201526064015b60405180910390fd5b6002545b6040519081526020015b60405180910390f35b61021e61023f3660046139f5565b610525565b610257610252366004613a37565b61054e565b6040519015158152602001610228565b61027a610275366004613a54565b6105d5565b6040516102289190613abd565b7f00000000000000000000000000000000000000000000000000000000000000005b6040516001600160a01b039091168152602001610228565b61021e6102cf366004613ad0565b6106cb565b6102e76102e2366004613b31565b6106f1565b6040516102289190613bae565b6102e7610302366004613b31565b61079f565b61031a610315366004613d50565b610844565b005b61021e610954565b61021e610332366004613ad0565b6001600160a01b031660009081526006602052604090205490565b7f00000000000000000000000000000000000000000000000000000000000000006102a9565b6102e7610381366004613e65565b610987565b61021e610394366004613ec8565b610ad7565b61031a6103a7366004613ef4565b610b89565b6102e76103ba366004613f96565b611032565b61031a6103cd36600461400f565b6111d9565b61031a6103e0366004613ad0565b611245565b61021e6103f3366004614048565b6112dc565b7f00000000000000000000000000000000000000000000000000000000000000006102a9565b61021e61042c366004614048565b611306565b61031a61043f36600461407a565b611330565b610457610452366004613d50565b61149d565b6040516001600160e01b03199091168152602001610228565b6102e761047e366004613f96565b61189b565b61049661049136600461409f565b611a37565b604080516001600160a01b039093168352602083019190915201610228565b6102e76104c33660046140c1565b611b87565b6003546001600160a01b03166102a9565b6102576104e7366004614191565b611dce565b6104576104fa3660046141bf565b611dfc565b61031a61050d3660046141bf565b611eee565b61021e610520366004613ec8565b611fed565b6001600160a01b0382166000908152602081815260408083208484529091529020545b92915050565b60006001600160e01b031982166336372b0760e01b148061057f57506001600160e01b031982166301ffc9a760e01b145b8061059a57506001600160e01b03198216636cdb3d1360e11b145b806105b557506001600160e01b03198216630271189760e51b145b8061054857506001600160e01b031982166303a24d0760e21b1492915050565b60607f00000000000000000000000000000000000000000000000000000000000000006001600160a01b031663d3d72d2a6040518163ffffffff1660e01b8152600401602060405180830381865afa158015610635573d6000803e3d6000fd5b505050506040513d601f19601f820116820180604052508101906106599190614227565b6001600160a01b0316630e89341c836040518263ffffffff1660e01b815260040161068691815260200190565b600060405180830381865afa1580156106a3573d6000803e3d6000fd5b505050506040513d6000823e601f3d908101601f191682016040526105489190810190614244565b6001600160a01b03811660009081526006602052604081205461054890612710906142e6565b6060816000816001600160401b0381111561070e5761070e613bc1565b604051908082528060200260200182016040528015610737578160200160208202803683370190505b50905060005b82811015610796576005600087878481811061075b5761075b6142fa565b90506020020135815260200190815260200160002054828281518110610783576107836142fa565b602090810291909101015260010161073d565b50949350505050565b6060816000816001600160401b038111156107bc576107bc613bc1565b6040519080825280602002602001820160405280156107e5578160200160208202803683370190505b50905060005b828110156107965760046000878784818110610809576108096142fa565b90506020020135815260200190815260200160002054828281518110610831576108316142fa565b60209081029190910101526001016107eb565b336001600160a01b038616148061086057506108608533611dce565b6108c45760405162461bcd60e51b815260206004820152602f60248201527f45524331313535237361666542617463685472616e7366657246726f6d3a204960448201526e272b20a624a22fa7a822a920aa27a960891b6064820152608401610211565b6001600160a01b0384166109335760405162461bcd60e51b815260206004820152603060248201527f45524331313535237361666542617463685472616e7366657246726f6d3a204960448201526f13959053125117d49150d2541251539560821b6064820152608401610211565b61093f85858585612090565b61094d858585855a8661226d565b5050505050565b60006109827f00000000000000000000000000000000000000000000000000000000000000006103e8614310565b905090565b606081518351146109ef5760405162461bcd60e51b815260206004820152602c60248201527f455243313135352362616c616e63654f6642617463683a20494e56414c49445f60448201526b082a4a482b2be988a9c8ea8960a31b6064820152608401610211565b600083516001600160401b03811115610a0a57610a0a613bc1565b604051908082528060200260200182016040528015610a33578160200160208202803683370190505b50905060005b8451811015610acf57600080868381518110610a5757610a576142fa565b60200260200101516001600160a01b03166001600160a01b031681526020019081526020016000206000858381518110610a9357610a936142fa565b6020026020010151815260200190815260200160002054828281518110610abc57610abc6142fa565b6020908102919091010152600101610a39565b509392505050565b60008083118015610ae85750600082115b610b1d5760405162461bcd60e51b81526020600482015260066024820152654e453230233960d01b6044820152606401610211565b6000610b497f000000000000000000000000000000000000000000000000000000000000000086614323565b90506000610b578483614323565b9050600082610b68876103e8614323565b610b72919061433a565b9050610b7e81836142e6565b979650505050505050565b42811015610bc35760405162461bcd60e51b815260206004820152600760248201526604e4532302331360cc1b6044820152606401610211565b8351600080826001600160401b03811115610be057610be0613bc1565b604051908082528060200260200182016040528015610c09578160200160208202803683370190505b5090506000836001600160401b03811115610c2657610c26613bc1565b604051908082528060200260200182016040528015610c4f578160200160208202803683370190505b5090506000610c5d89612391565b905060005b85811015610f995760008a8281518110610c7e57610c7e6142fa565b6020026020010151905060008a8381518110610c9c57610c9c6142fa565b6020026020010151905060008a8481518110610cba57610cba6142fa565b602002602001015111610cf95760405162461bcd60e51b81526020600482015260076024820152664e45323023313160c81b6044820152606401610211565b60008111610d335760405162461bcd60e51b81526020600482015260076024820152662722991811989960c91b6044820152606401610211565b6000828152600460205260409020548015610ec2576000838152600560205260408120548651909190879087908110610d6e57610d6e6142fa565b60200260200101519050600080610d998487610d8a9190614323565b610d948886614310565b612665565b91509150818f8981518110610db057610db06142fa565b60200260200101511015610df05760405162461bcd60e51b81526020600482015260076024820152664e45323023313360c81b6044820152606401610211565b610dfa828561433a565b600088815260056020526040902055610e13828d61433a565b9b50838582610e23576000610e26565b60015b610e339060ff1685614310565b610e3d9190614323565b610e4791906142e6565b8b8981518110610e5957610e596142fa565b602002602001018181525050818a8981518110610e7857610e786142fa565b6020026020010181815250508a8881518110610e9657610e966142fa565b602002602001015185610ea9919061433a565b60008881526004602052604090205550610f8e92505050565b60008b8581518110610ed657610ed66142fa565b602002602001015190506103e8811015610f1c5760405162461bcd60e51b815260206004820152600760248201526613914c8c08cc4d60ca1b6044820152606401610211565b6000848152600560205260409020819055610f37818a61433a565b600085815260046020526040902082905588519099508190899087908110610f6157610f616142fa565b60200260200101818152505080878681518110610f8057610f806142fa565b602002602001018181525050505b505050600101610c62565b50610fc67f00000000000000000000000000000000000000000000000000000000000000008b30876126ab565b610fe18a8a85604051806020016040528060008152506127e1565b896001600160a01b03167f403f9dc4582dae52d3eeb4a22d37540ffb13c32d964c92ec5ac0d3d5628da3168a8a8560405161101e9392919061434d565b60405180910390a250505050505050505050565b6060836000816001600160401b0381111561104f5761104f613bc1565b604051908082528060200260200182016040528015611078578160200160208202803683370190505b50905060005b828110156111ce5760007f00000000000000000000000000000000000000000000000000000000000000006001600160a01b031662fdd58e308b8b868181106110c9576110c96142fa565b6040516001600160e01b031960e087901b1681526001600160a01b0390941660048501526020029190910135602483015250604401602060405180830381865afa15801561111b573d6000803e3d6000fd5b505050506040513d601f19601f8201168201806040525081019061113f9190614390565b90506111a8898984818110611156576111566142fa565b9050602002013588888581811061116f5761116f6142fa565b9050602002013583600560008e8e8981811061118d5761118d6142fa565b905060200201358152602001908152602001600020546112dc565b8383815181106111ba576111ba6142fa565b60209081029190910101525060010161107e565b509695505050505050565b3360008181526001602090815260408083206001600160a01b03871680855290835292819020805460ff191686151590811790915590519081529192917f17307eab39ab6107e8899845ad3d59bd9653f200f220920489ca2b5937696c31910160405180910390a35050565b6001600160a01b03811660009081526006602052604081205461126b90612710906142e6565b6001600160a01b03831660009081526006602052604090205490915061129490612710906143a9565b6001600160a01b0383166000908152600660205260409020556112d87f00000000000000000000000000000000000000000000000000000000000000008383612944565b5050565b6000806112ea858585610ad7565b905060006112f88783611a37565b9150610b7e90508183614310565b600080611314858585611fed565b905060006113228783611a37565b9150610b7e9050818361433a565b6040516301ffc9a760e01b815263152a902d60e11b60048201526000907f00000000000000000000000000000000000000000000000000000000000000006001600160a01b0316906301ffc9a790602401602060405180830381865afa15801561139e573d6000803e3d6000fd5b505050506040513d601f19601f820116820180604052508101906113c291906143bd565b905080156113fc5760405162461bcd60e51b815260206004820152600760248201526604e4532302333360cc1b6044820152606401610211565b61140960046127106142e6565b8311156114425760405162461bcd60e51b81526020600482015260076024820152664e45323023333160c81b6044820152606401610211565b6002839055600380546001600160a01b0319166001600160a01b0384169081179091556040518481527f02365318429bf1d603e8383b62068288a077545c5c9e709201d563b3f56ce2b39060200160405180910390a2505050565b600080828060200190518101906114b491906143da565b905063290c31c360e11b6001600160e01b031982160161166a57336001600160a01b037f000000000000000000000000000000000000000000000000000000000000000016146115305760405162461bcd60e51b81526020600482015260076024820152662722991811991960c91b6044820152606401610211565b61156b6040518060a0016040528060006001600160a01b03168152602001600081526020016060815260200160608152602001600081525090565b8380602001905181019061157f9190614456565b8051909250600091506001600160a01b03161561159d57815161159f565b875b9050816060015151826040015151146115e45760405162461bcd60e51b81526020600482015260076024820152664e45323023323360c81b6044820152606401610211565b60006116058888856020015186608001518688604001518960600151612a6e565b9050816001600160a01b0316896001600160a01b03167fb57378559821141c0e7ae964206b7523234d19e5783ade99b3d665eee495c9978a8a858860400151896060015160405161165a9594939291906145ba565b60405180910390a3505050611888565b637d25d48d60e01b6001600160e01b031982160161172e57336001600160a01b037f000000000000000000000000000000000000000000000000000000000000000016146116e45760405162461bcd60e51b815260206004820152600760248201526613914c8c08cc8d60ca1b6044820152606401610211565b6040805180820190915260608152600060208201528380602001905181019061170d9190614627565b90508091505061172887878784600001518560200151610b89565b50611888565b63a3f40da760e01b6001600160e01b03198216016117d75733301461177f5760405162461bcd60e51b81526020600482015260076024820152664e45323023323560c81b6044820152606401610211565b6117a360405180606001604052806060815260200160608152602001600081525090565b838060200190518101906117b791906146c9565b905080915050611728878787846000015185602001518660400151612dc9565b63373cdc0760e01b6001600160e01b031982160161185657336001600160a01b037f000000000000000000000000000000000000000000000000000000000000000016146118515760405162461bcd60e51b81526020600482015260076024820152662722991811991b60c91b6044820152606401610211565b611888565b60405162461bcd60e51b81526020600482015260076024820152664e45323023323760c81b6044820152606401610211565b5063bc197c8160e01b9695505050505050565b6060836000816001600160401b038111156118b8576118b8613bc1565b6040519080825280602002602001820160405280156118e1578160200160208202803683370190505b50905060005b828110156111ce5760007f00000000000000000000000000000000000000000000000000000000000000006001600160a01b031662fdd58e308b8b86818110611932576119326142fa565b6040516001600160e01b031960e087901b1681526001600160a01b0390941660048501526020029190910135602483015250604401602060405180830381865afa158015611984573d6000803e3d6000fd5b505050506040513d601f19601f820116820180604052508101906119a89190614390565b9050611a118989848181106119bf576119bf6142fa565b905060200201358888858181106119d8576119d86142fa565b90506020020135600560008d8d888181106119f5576119f56142fa565b9050602002013581526020019081526020016000205484611306565b838381518110611a2357611a236142fa565b6020908102919091010152506001016118e7565b6000807f000000000000000000000000000000000000000000000000000000000000000015611b605760405163152a902d60e11b815260048101859052602481018490527f00000000000000000000000000000000000000000000000000000000000000006001600160a01b031690632a55205a906044016040805180830381865afa925050508015611ae7575060408051601f3d908101601f19168201909252611ae491810190614779565b60015b611b1e576003546002546001600160a01b039091169061271090611b0b9086614323565b611b1591906142e6565b91509150611b80565b6000612710611b2e6004826142e6565b611b389088614323565b611b4291906142e6565b905082818311611b525782611b54565b815b94509450505050611b80565b6003546002546001600160a01b039091169061271090611b0b9086614323565b9250929050565b606042851015611bc35760405162461bcd60e51b81526020600482015260076024820152664e45323023313960c81b6044820152606401610211565b6000885111611bfe5760405162461bcd60e51b815260206004820152600760248201526604e4532302332360cc1b6044820152606401610211565b611c2a7f00000000000000000000000000000000000000000000000000000000000000003330896126ab565b60006001600160a01b03851615611c415784611c43565b335b8451845191925088918114611c845760405162461bcd60e51b81526020600482015260076024820152664e45323023323160c81b6044820152606401610211565b60005b81811015611d5a576000868281518110611ca357611ca36142fa565b60200260200101511115611d5257858181518110611cc357611cc36142fa565b602002602001015183611cd69190614310565b9250612710868281518110611ced57611ced6142fa565b6020026020010151611cff9190614323565b60066000898481518110611d1557611d156142fa565b60200260200101516001600160a01b03166001600160a01b031681526020019081526020016000206000828254611d4c919061433a565b90915550505b600101611c87565b506000611d6a8c8c858c8861329e565b9050836001600160a01b0316336001600160a01b03167f28fb4c13c000d11e44ba9e45029f385ed02ffeae62dc5704e2c0706a4dab5ecb8e8e858c8c604051611db79594939291906145ba565b60405180910390a39b9a5050505050505050505050565b6001600160a01b03918216600090815260016020908152604080832093909416825291909152205460ff1690565b6040805160018082528183019092526000918291906020808301908036833750506040805160018082528183019092529293506000929150602080830190803683370190505090508582600081518110611e5857611e586142fa565b6020026020010181815250508481600081518110611e7857611e786142fa565b602002602001018181525050611e91888884848861149d565b6001600160e01b03191663bc197c8160e01b14611eda5760405162461bcd60e51b815260206004820152600760248201526609c8a64604664760cb1b6044820152606401610211565b5063f23a6e6160e01b979650505050505050565b336001600160a01b0386161480611f0a5750611f0a8533611dce565b611f695760405162461bcd60e51b815260206004820152602a60248201527f4552433131353523736166655472616e7366657246726f6d3a20494e56414c49604482015269222fa7a822a920aa27a960b11b6064820152608401610211565b6001600160a01b038416611fd35760405162461bcd60e51b815260206004820152602b60248201527f4552433131353523736166655472616e7366657246726f6d3a20494e56414c4960448201526a1117d49150d2541251539560aa1b6064820152608401610211565b611fdf8585858561356b565b61094d858585855a86613629565b60008083118015611ffe5750600082115b6120335760405162461bcd60e51b81526020600482015260066024820152654e453230233560d01b6044820152606401610211565b600061203f8585614323565b61204b906103e8614323565b905060007f000000000000000000000000000000000000000000000000000000000000000061207a8786614310565b6120849190614323565b90506111ce8282612665565b80518251146120ff5760405162461bcd60e51b815260206004820152603560248201527f45524331313535235f7361666542617463685472616e7366657246726f6d3a206044820152740929cac82989288be82a4a482b2a6be988a9c8ea89605b1b6064820152608401610211565b815160005b8181101561220e5782818151811061211e5761211e6142fa565b6020026020010151600080886001600160a01b03166001600160a01b03168152602001908152602001600020600086848151811061215e5761215e6142fa565b6020026020010151815260200190815260200160002060008282546121839190614310565b9250508190555082818151811061219c5761219c6142fa565b6020026020010151600080876001600160a01b03166001600160a01b0316815260200190815260200160002060008684815181106121dc576121dc6142fa565b602002602001015181526020019081526020016000206000828254612201919061433a565b9091555050600101612104565b50836001600160a01b0316856001600160a01b0316336001600160a01b03167f4a39dc06d4c0dbc64b70af90fd698a233a518aa5d07e595d983b8c0526c8f7fb868660405161225e9291906147a7565b60405180910390a45050505050565b61227f856001600160a01b0316613743565b15612389576000856001600160a01b031663bc197c8184338a8989886040518763ffffffff1660e01b81526004016122bb9594939291906147cc565b60206040518083038160008887f11580156122da573d6000803e3d6000fd5b50505050506040513d601f19601f820116820180604052508101906122ff91906143da565b90506001600160e01b0319811663bc197c8160e01b146123875760405162461bcd60e51b815260206004820152603f60248201527f45524331313535235f63616c6c6f6e455243313135354261746368526563656960448201527f7665643a20494e56414c49445f4f4e5f524543454956455f4d455353414745006064820152608401610211565b505b505050505050565b805160609060018190036124a257604080516001808252818301909252600091602080830190803683370190505090507f00000000000000000000000000000000000000000000000000000000000000006001600160a01b031662fdd58e3086600081518110612403576124036142fa565b60200260200101516040518363ffffffff1660e01b815260040161243c9291906001600160a01b03929092168252602082015260400190565b602060405180830381865afa158015612459573d6000803e3d6000fd5b505050506040513d601f19601f8201168201806040525081019061247d9190614390565b81600081518110612490576124906142fa565b60209081029190910101529392505050565b6000816001600160401b038111156124bc576124bc613bc1565b6040519080825280602002602001820160405280156124e5578160200160208202803683370190505b50905030816000815181106124fc576124fc6142fa565b6001600160a01b039092166020928302919091019091015260015b828110156125c957848181518110612531576125316142fa565b6020026020010151856001836125479190614310565b81518110612557576125576142fa565b6020026020010151106125965760405162461bcd60e51b81526020600482015260076024820152662722991811999960c91b6044820152606401610211565b308282815181106125a9576125a96142fa565b6001600160a01b0390921660209283029190910190910152600101612517565b506040516313849cfd60e21b81526001600160a01b037f00000000000000000000000000000000000000000000000000000000000000001690634e1273f490612618908490889060040161481e565b600060405180830381865afa158015612635573d6000803e3d6000fd5b505050506040513d6000823e601f3d908101601f1916820160405261265d9190810190614831565b949350505050565b60008061267283856143a9565b156126935761268183856142e6565b61268c90600161433a565b60016126a0565b61269d83856142e6565b60005b915091509250929050565b604080516001600160a01b0385811660248301528481166044830152606480830185905283518084039091018152608490920183526020820180516001600160e01b03166323b872dd60e01b179052915160009283929088169161270f9190614865565b6000604051808303816000865af19150503d806000811461274c576040519150601f19603f3d011682016040523d82523d6000602084013e612751565b606091505b509150915081801561277b57508051158061277b57508080602001905181019061277b91906143bd565b6123895760405162461bcd60e51b815260206004820152603160248201527f5472616e7366657248656c7065723a3a7472616e7366657246726f6d3a207472604482015270185b9cd9995c919c9bdb4819985a5b1959607a1b6064820152608401610211565b815183511461284b5760405162461bcd60e51b815260206004820152603060248201527f455243313135354d696e744275726e2362617463684d696e743a20494e56414c60448201526f09288be82a4a482b2a6be988a9c8ea8960831b6064820152608401610211565b825160005b818110156128dc5783818151811061286a5761286a6142fa565b6020026020010151600080886001600160a01b03166001600160a01b0316815260200190815260200160002060008784815181106128aa576128aa6142fa565b6020026020010151815260200190815260200160002060008282546128cf919061433a565b9091555050600101612850565b50846001600160a01b031660006001600160a01b0316336001600160a01b03167f4a39dc06d4c0dbc64b70af90fd698a233a518aa5d07e595d983b8c0526c8f7fb878760405161292d9291906147a7565b60405180910390a461094d60008686865a8761226d565b604080516001600160a01b038481166024830152604480830185905283518084039091018152606490920183526020820180516001600160e01b031663a9059cbb60e01b17905291516000928392908716916129a09190614865565b6000604051808303816000865af19150503d80600081146129dd576040519150601f19603f3d011682016040523d82523d6000602084013e6129e2565b606091505b5091509150818015612a0c575080511580612a0c575080806020019051810190612a0c91906143bd565b61094d5760405162461bcd60e51b815260206004820152602d60248201527f5472616e7366657248656c7065723a3a736166655472616e736665723a20747260448201526c185b9cd9995c8819985a5b1959609a1b6064820152608401610211565b865160609042861015612aac5760405162461bcd60e51b815260206004820152600660248201526527229918119b60d11b6044820152606401610211565b6000816001600160401b03811115612ac657612ac6613bc1565b604051908082528060200260200182016040528015612aef578160200160208202803683370190505b5092506000612afd8b612391565b905060005b83811015612c7e5760008c8281518110612b1e57612b1e6142fa565b6020026020010151905060008c8381518110612b3c57612b3c6142fa565b602002602001015190506000848481518110612b5a57612b5a6142fa565b6020026020010151905060008211612b9d5760405162461bcd60e51b81526020600482015260066024820152654e453230233760d01b6044820152606401610211565b60008381526005602052604081205490612bc184612bbb8186614310565b84610ad7565b9050600080612bd08784611a37565b90925090508015612c1557612be761271082614323565b6001600160a01b03831660009081526006602052604081208054909190612c0f90849061433a565b90915550505b612c1f8184614310565b612c29908b61433a565b9950612c358385614310565b600088815260056020526040902055612c4e8184614310565b8c8981518110612c6057612c606142fa565b6020908102919091010152505060019095019450612b029350505050565b5060005b8551811015612d56576000868281518110612c9f57612c9f6142fa565b60200260200101511115612d4e57858181518110612cbf57612cbf6142fa565b602002602001015183612cd29190614310565b9250612710868281518110612ce957612ce96142fa565b6020026020010151612cfb9190614323565b60066000898481518110612d1157612d116142fa565b60200260200101516001600160a01b03166001600160a01b031681526020019081526020016000206000828254612d48919061433a565b90915550505b600101612c82565b5088821015612d905760405162461bcd60e51b815260206004820152600660248201526509c8a646046760d31b6044820152606401610211565b612dbb7f00000000000000000000000000000000000000000000000000000000000000008884612944565b505050979650505050505050565b428111612e025760405162461bcd60e51b81526020600482015260076024820152664e45323023313560c81b6044820152606401610211565b8451600080826001600160401b03811115612e1f57612e1f613bc1565b604051908082528060200260200182016040528015612e48578160200160208202803683370190505b5090506000836001600160401b03811115612e6557612e65613bc1565b604051908082528060200260200182016040528015612ec157816020015b612eae6040518060800160405280600081526020016000815260200160008152602001600081525090565b815260200190600190039081612e835790505b5090506000612ecf8a612391565b905060005b858110156131915760008b8281518110612ef057612ef06142fa565b6020026020010151905060008b8381518110612f0e57612f0e6142fa565b6020026020010151905060006004600084815260200190815260200160002054905060008111612f6a5760405162461bcd60e51b81526020600482015260076024820152662722991811989b60c91b6044820152606401610211565b600083815260056020526040812054865190919081908190899089908110612f9457612f946142fa565b60200260200101519050600080600080612fb18b8b878b8d61377d565b6001600160a01b03821660009081526006602052604081208054979e50959c50939950919750955093508392612fe890849061433a565b92505081905550838e8d81518110613002576130026142fa565b60200260200101516020018181525050828e8d81518110613025576130256142fa565b60200260200101516040018181525050888e8d81518110613048576130486142fa565b6020026020010151606001818152505050505050508e878151811061306f5761306f6142fa565b60200260200101518210156130b05760405162461bcd60e51b81526020600482015260076024820152664e45323023313760c81b6044820152606401610211565b8d87815181106130c2576130c26142fa565b60200260200101518110156131035760405162461bcd60e51b815260206004820152600760248201526609c8a64604662760cb1b6044820152606401610211565b61310d8585614310565b6000878152600460205260409020556131268284614310565b60008781526005602052604090205561313f828c61433a565b9a50808a8881518110613154576131546142fa565b60200260200101818152505081898881518110613173576131736142fa565b602090810291909101015152505060019094019350612ed492505050565b5061319d308b8b613882565b6131c87f00000000000000000000000000000000000000000000000000000000000000008c86612944565b604051631759616b60e11b81526001600160a01b037f00000000000000000000000000000000000000000000000000000000000000001690632eb2c2d69061321a9030908f908f908990600401614881565b600060405180830381600087803b15801561323457600080fd5b505af1158015613248573d6000803e3d6000fd5b505050508a6001600160a01b03167f3024a3223ce9e6a0b0324a52224694f329e7f092c1a7b74067b8f3cbfa1885718b8585604051613289939291906148dc565b60405180910390a25050505050505050505050565b6060428310156132d95760405162461bcd60e51b81526020600482015260066024820152654e453230233360d01b6044820152606401610211565b855184816001600160401b038111156132f4576132f4613bc1565b60405190808252806020026020018201604052801561331d578160200160208202803683370190505b509250600061332b89612391565b905060005b838110156134a65760008a828151811061334c5761334c6142fa565b6020026020010151905060008a838151811061336a5761336a6142fa565b602002602001015190506000848481518110613388576133886142fa565b60200260200101519050600082116133cb5760405162461bcd60e51b815260206004820152600660248201526513914c8c08cd60d21b6044820152606401610211565b600083815260056020526040812054906133e6848385611fed565b90506000806133f58784611a37565b9092509050801561343a5761340c61271082614323565b6001600160a01b0383166000908152600660205260408120805490919061343490849061433a565b90915550505b613444818461433a565b61344e908b614310565b995061345a818461433a565b8c898151811061346c5761346c6142fa565b6020908102919091010152613481838561433a565b6000978852600560205260409097209690965550506001909401935061333092505050565b50604051631759616b60e11b81526001600160a01b037f00000000000000000000000000000000000000000000000000000000000000001690632eb2c2d6906134f990309089908e908e90600401614881565b600060405180830381600087803b15801561351357600080fd5b505af1158015613527573d6000803e3d6000fd5b50505050600082111561355f5761355f7f00000000000000000000000000000000000000000000000000000000000000008684612944565b50505095945050505050565b6001600160a01b0384166000908152602081815260408083208584529091528120805483929061359c908490614310565b90915550506001600160a01b038316600090815260208181526040808320858452909152812080548392906135d290849061433a565b909155505060408051838152602081018390526001600160a01b03808616929087169133917fc3d58168c5ae7397731d063d5bbf3d657854427343f4c083240f7aacaa2d0f6291015b60405180910390a450505050565b61363b856001600160a01b0316613743565b15612389576000856001600160a01b031663f23a6e6184338a8989886040518763ffffffff1660e01b8152600401613677959493929190614969565b60206040518083038160008887f1158015613696573d6000803e3d6000fd5b50505050506040513d601f19601f820116820180604052508101906136bb91906143da565b90506001600160e01b0319811663f23a6e6160e01b146123875760405162461bcd60e51b815260206004820152603a60248201527f45524331313535235f63616c6c6f6e4552433131353552656365697665643a2060448201527f494e56414c49445f4f4e5f524543454956455f4d4553534147450000000000006064820152608401610211565b6000813f801580159061377657507fc5d2460186f7233c927e7db2dcc703c0e500b653ca82273b7bfad8045d85a4708114155b9392505050565b600080808080808061378f898c614323565b9050600061379d8b8d614323565b90506137a989826143a9565b9550851561385b576000896137be81846142e6565b6137c8908e614310565b6137d29190614323565b905060008a6137e181866142e6565b6137eb908e614310565b6137f59190614323565b9050801580159061380557508115155b1561385857613815888383610ad7565b96506138218f88611a37565b90965094506138308588614310565b965061383c878561433a565b93508a61384b61271087614323565b61385591906142e6565b94505b50505b61386589836142e6565b975061387189826142e6565b965050509550955095509550955095565b8151815181146138ed5760405162461bcd60e51b815260206004820152603060248201527f455243313135354d696e744275726e2362617463684275726e3a20494e56414c60448201526f09288be82a4a482b2a6be988a9c8ea8960831b6064820152608401610211565b60005b8181101561397c5782818151811061390a5761390a6142fa565b6020026020010151600080876001600160a01b03166001600160a01b03168152602001908152602001600020600086848151811061394a5761394a6142fa565b60200260200101518152602001908152602001600020600082825461396f9190614310565b90915550506001016138f0565b5060006001600160a01b0316846001600160a01b0316336001600160a01b03167f4a39dc06d4c0dbc64b70af90fd698a233a518aa5d07e595d983b8c0526c8f7fb868660405161361b9291906147a7565b6001600160a01b03811681146139e257600080fd5b50565b80356139f0816139cd565b919050565b60008060408385031215613a0857600080fd5b8235613a13816139cd565b946020939093013593505050565b6001600160e01b0319811681146139e257600080fd5b600060208284031215613a4957600080fd5b813561377681613a21565b600060208284031215613a6657600080fd5b5035919050565b60005b83811015613a88578181015183820152602001613a70565b50506000910152565b60008151808452613aa9816020860160208601613a6d565b601f01601f19169290920160200192915050565b6020815260006137766020830184613a91565b600060208284031215613ae257600080fd5b8135613776816139cd565b60008083601f840112613aff57600080fd5b5081356001600160401b03811115613b1657600080fd5b6020830191508360208260051b8501011115611b8057600080fd5b60008060208385031215613b4457600080fd5b82356001600160401b03811115613b5a57600080fd5b613b6685828601613aed565b90969095509350505050565b60008151808452602080850194506020840160005b83811015613ba357815187529582019590820190600101613b87565b509495945050505050565b6020815260006137766020830184613b72565b634e487b7160e01b600052604160045260246000fd5b60405160a081016001600160401b0381118282101715613bf957613bf9613bc1565b60405290565b604051606081016001600160401b0381118282101715613bf957613bf9613bc1565b604051601f8201601f191681016001600160401b0381118282101715613c4957613c49613bc1565b604052919050565b60006001600160401b03821115613c6a57613c6a613bc1565b5060051b60200190565b600082601f830112613c8557600080fd5b81356020613c9a613c9583613c51565b613c21565b8083825260208201915060208460051b870101935086841115613cbc57600080fd5b602086015b848110156111ce5780358352918301918301613cc1565b60006001600160401b03821115613cf157613cf1613bc1565b50601f01601f191660200190565b600082601f830112613d1057600080fd5b8135613d1e613c9582613cd8565b818152846020838601011115613d3357600080fd5b816020850160208301376000918101602001919091529392505050565b600080600080600060a08688031215613d6857600080fd5b8535613d73816139cd565b94506020860135613d83816139cd565b935060408601356001600160401b0380821115613d9f57600080fd5b613dab89838a01613c74565b94506060880135915080821115613dc157600080fd5b613dcd89838a01613c74565b93506080880135915080821115613de357600080fd5b50613df088828901613cff565b9150509295509295909350565b600082601f830112613e0e57600080fd5b81356020613e1e613c9583613c51565b8083825260208201915060208460051b870101935086841115613e4057600080fd5b602086015b848110156111ce578035613e58816139cd565b8352918301918301613e45565b60008060408385031215613e7857600080fd5b82356001600160401b0380821115613e8f57600080fd5b613e9b86838701613dfd565b93506020850135915080821115613eb157600080fd5b50613ebe85828601613c74565b9150509250929050565b600080600060608486031215613edd57600080fd5b505081359360208301359350604090920135919050565b600080600080600060a08688031215613f0c57600080fd5b8535613f17816139cd565b945060208601356001600160401b0380821115613f3357600080fd5b613f3f89838a01613c74565b95506040880135915080821115613f5557600080fd5b613f6189838a01613c74565b94506060880135915080821115613f7757600080fd5b50613f8488828901613c74565b95989497509295608001359392505050565b60008060008060408587031215613fac57600080fd5b84356001600160401b0380821115613fc357600080fd5b613fcf88838901613aed565b90965094506020870135915080821115613fe857600080fd5b50613ff587828801613aed565b95989497509550505050565b80151581146139e257600080fd5b6000806040838503121561402257600080fd5b823561402d816139cd565b9150602083013561403d81614001565b809150509250929050565b6000806000806080858703121561405e57600080fd5b5050823594602084013594506040840135936060013592509050565b6000806040838503121561408d57600080fd5b82359150602083013561403d816139cd565b600080604083850312156140b257600080fd5b50508035926020909101359150565b600080600080600080600060e0888a0312156140dc57600080fd5b87356001600160401b03808211156140f357600080fd5b6140ff8b838c01613c74565b985060208a013591508082111561411557600080fd5b6141218b838c01613c74565b975060408a0135965060608a0135955061413d60808b016139e5565b945060a08a013591508082111561415357600080fd5b61415f8b838c01613dfd565b935060c08a013591508082111561417557600080fd5b506141828a828b01613c74565b91505092959891949750929550565b600080604083850312156141a457600080fd5b82356141af816139cd565b9150602083013561403d816139cd565b600080600080600060a086880312156141d757600080fd5b85356141e2816139cd565b945060208601356141f2816139cd565b9350604086013592506060860135915060808601356001600160401b0381111561421b57600080fd5b613df088828901613cff565b60006020828403121561423957600080fd5b8151613776816139cd565b60006020828403121561425657600080fd5b81516001600160401b0381111561426c57600080fd5b8201601f8101841361427d57600080fd5b805161428b613c9582613cd8565b8181528560208385010111156142a057600080fd5b6142b1826020830160208601613a6d565b95945050505050565b634e487b7160e01b600052601260045260246000fd5b634e487b7160e01b600052601160045260246000fd5b6000826142f5576142f56142ba565b500490565b634e487b7160e01b600052603260045260246000fd5b81810381811115610548576105486142d0565b8082028115828204841417610548576105486142d0565b80820180821115610548576105486142d0565b6060815260006143606060830186613b72565b82810360208401526143728186613b72565b905082810360408401526143868185613b72565b9695505050505050565b6000602082840312156143a257600080fd5b5051919050565b6000826143b8576143b86142ba565b500690565b6000602082840312156143cf57600080fd5b815161377681614001565b6000602082840312156143ec57600080fd5b815161377681613a21565b600082601f83011261440857600080fd5b81516020614418613c9583613c51565b8083825260208201915060208460051b87010193508684111561443a57600080fd5b602086015b848110156111ce578051835291830191830161443f565b6000806040838503121561446957600080fd5b825161447481613a21565b809250506020808401516001600160401b038082111561449357600080fd5b9085019060a082880312156144a757600080fd5b6144af613bd7565b82516144ba816139cd565b815282840151848201526040830151828111156144d657600080fd5b8301601f810189136144e757600080fd5b80516144f5613c9582613c51565b81815260059190911b8201860190868101908b83111561451457600080fd5b928701925b8284101561453b57835161452c816139cd565b82529287019290870190614519565b6040850152505050606083015193508184111561455757600080fd5b614563888585016143f7565b606082015260808301516080820152809450505050509250929050565b60008151808452602080850194506020840160005b83811015613ba35781516001600160a01b031687529582019590820190600101614595565b60a0815260006145cd60a0830188613b72565b82810360208401526145df8188613b72565b905082810360408401526145f38187613b72565b905082810360608401526146078186614580565b9050828103608084015261461b8185613b72565b98975050505050505050565b6000806040838503121561463a57600080fd5b825161464581613a21565b60208401519092506001600160401b038082111561466257600080fd5b908401906040828703121561467657600080fd5b60405160408101818110838211171561469157614691613bc1565b6040528251828111156146a357600080fd5b6146af888286016143f7565b825250602083015160208201528093505050509250929050565b600080604083850312156146dc57600080fd5b82516146e781613a21565b60208401519092506001600160401b038082111561470457600080fd5b908401906060828703121561471857600080fd5b614720613bff565b82518281111561472f57600080fd5b61473b888286016143f7565b82525060208301518281111561475057600080fd5b61475c888286016143f7565b602083015250604083015160408201528093505050509250929050565b6000806040838503121561478c57600080fd5b8251614797816139cd565b6020939093015192949293505050565b6040815260006147ba6040830185613b72565b82810360208401526142b18185613b72565b6001600160a01b0386811682528516602082015260a0604082018190526000906147f890830186613b72565b828103606084015261480a8186613b72565b9050828103608084015261461b8185613a91565b6040815260006147ba6040830185614580565b60006020828403121561484357600080fd5b81516001600160401b0381111561485957600080fd5b61265d848285016143f7565b60008251614877818460208701613a6d565b9190910192915050565b6001600160a01b0385811682528416602082015260a0604082018190526000906148ad90830185613b72565b82810360608401526148bf8185613b72565b838103608090940193909352505060008152602001949350505050565b600060608083526148f06060840187613b72565b6020848203818601526149038288613b72565b9150604085830360408701528287518085528385019150838901945060005b8181101561495957855180518452858101518685015284810151858501528701518784015294840194608090920191600101614922565b50909a9950505050505050505050565b6001600160a01b03868116825285166020820152604081018490526060810183905260a060808201819052600090610b7e90830184613a9156fea26469706673582212204555e91b50860a1cdb3980536db0ec9baf89398048bbbf60112b561e7f00ced964736f6c63430008180033",
  "linkReferences": {},
  "deployedLinkReferences": {}
}