{
  "_format": "hh-sol-artifact-1",
  "contractName": "WhiskySwapExchange",
  "sourceName": "contracts/exchange/WhiskySwapExchange.sol",
  "abi": [
    {
      "inputs": [
        {
          "internalType": "address",
          "name": "_tokenAddr",
          "type": "address"
        },
        {
          "internalType": "address",
          "name": "_currencyAddr",
          "type": "address"
        },
        {
          "internalType": "uint256",
          "name": "_lpFee",
          "type": "uint256"
        }
      ],
      "stateMutability": "nonpayable",
      "type": "constructor"
    },
    {
      "anonymous": false,
      "inputs": [
        {
          "indexed": true,
          "internalType": "address",
          "name": "_owner",
          "type": "address"
        },
        {
          "indexed": true,
          "internalType": "address",
          "name": "_operator",
          "type": "address"
        },
        {
          "indexed": false,
          "internalType": "bool",
          "name": "_approved",
          "type": "bool"
        }
      ],
      "name": "ApprovalForAll",
      "type": "event"
    },
    {
      "anonymous": false,
      "inputs": [
        {
          "indexed": true,
          "internalType": "address",
          "name": "buyer",
          "type": "address"
        },
        {
          "indexed": true,
          "internalType": "address",
          "name": "recipient",
          "type": "address"
        },
        {
          "indexed": false,
          "internalType": "uint256[]",
          "name": "tokensSoldIds",
          "type": "uint256[]"
        },
        {
          "indexed": false,
          "internalType": "uint256[]",
          "name": "tokensSoldAmounts",
          "type": "uint256[]"
        },
        {
          "indexed": false,
          "internalType": "uint256[]",
          "name": "currencyBoughtAmounts",
          "type": "uint256[]"
        },
        {
          "indexed": false,
          "internalType": "address[]",
          "name": "extraFeeRecipients",
          "type": "address[]"
        },
        {
          "indexed": false,
          "internalType": "uint256[]",
          "name": "extraFeeAmounts",
          "type": "uint256[]"
        }
      ],
      "name": "CurrencyPurchase",
      "type": "event"
    },
    {
      "anonymous": false,
      "inputs": [
        {
          "indexed": true,
          "internalType": "address",
          "name": "provider",
          "type": "address"
        },
        {
          "indexed": false,
          "internalType": "uint256[]",
          "name": "tokenIds",
          "type": "uint256[]"
        },
        {
          "indexed": false,
          "internalType": "uint256[]",
          "name": "tokenAmounts",
          "type": "uint256[]"
        },
        {
          "indexed": false,
          "internalType": "uint256[]",
          "name": "currencyAmounts",
          "type": "uint256[]"
        }
      ],
      "name": "LiquidityAdded",
      "type": "event"
    },
    {
      "anonymous": false,
      "inputs": [
        {
          "indexed": true,
          "internalType": "address",
          "name": "provider",
          "type": "address"
        },
        {
          "indexed": false,
          "internalType": "uint256[]",
          "name": "tokenIds",
          "type": "uint256[]"
        },
        {
          "indexed": false,
          "internalType": "uint256[]",
          "name": "tokenAmounts",
          "type": "uint256[]"
        },
        {
          "components": [
            {
              "internalType": "uint256",
              "name": "currencyAmount",
              "type": "uint256"
            },
            {
              "internalType": "uint256",
              "name": "soldTokenNumerator",
              "type": "uint256"
            },
            {
              "internalType": "uint256",
              "name": "boughtCurrencyNumerator",
              "type": "uint256"
            },
            {
              "internalType": "uint256",
              "name": "totalSupply",
              "type": "uint256"
            }
          ],
          "indexed": false,
          "internalType": "struct IWhiskySwapExchange.LiquidityRemovedEventObj[]",
          "name": "details",
          "type": "tuple[]"
        }
      ],
      "name": "LiquidityRemoved",
      "type": "event"
    },
    {
      "anonymous": false,
      "inputs": [
        {
          "indexed": true,
          "internalType": "address",
          "name": "royaltyRecipient",
          "type": "address"
        },
        {
          "indexed": false,
          "internalType": "uint256",
          "name": "royaltyFee",
          "type": "uint256"
        }
      ],
      "name": "RoyaltyChanged",
      "type": "event"
    },
    {
      "anonymous": false,
      "inputs": [
        {
          "indexed": true,
          "internalType": "address",
          "name": "buyer",
          "type": "address"
        },
        {
          "indexed": true,
          "internalType": "address",
          "name": "recipient",
          "type": "address"
        },
        {
          "indexed": false,
          "internalType": "uint256[]",
          "name": "tokensBoughtIds",
          "type": "uint256[]"
        },
        {
          "indexed": false,
          "internalType": "uint256[]",
          "name": "tokensBoughtAmounts",
          "type": "uint256[]"
        },
        {
          "indexed": false,
          "internalType": "uint256[]",
          "name": "currencySoldAmounts",
          "type": "uint256[]"
        },
        {
          "indexed": false,
          "internalType": "address[]",
          "name": "extraFeeRecipients",
          "type": "address[]"
        },
        {
          "indexed": false,
          "internalType": "uint256[]",
          "name": "extraFeeAmounts",
          "type": "uint256[]"
        }
      ],
      "name": "TokensPurchase",
      "type": "event"
    },
    {
      "anonymous": false,
      "inputs": [
        {
          "indexed": true,
          "internalType": "address",
          "name": "_operator",
          "type": "address"
        },
        {
          "indexed": true,
          "internalType": "address",
          "name": "_from",
          "type": "address"
        },
        {
          "indexed": true,
          "internalType": "address",
          "name": "_to",
          "type": "address"
        },
        {
          "indexed": false,
          "internalType": "uint256[]",
          "name": "_ids",
          "type": "uint256[]"
        },
        {
          "indexed": false,
          "internalType": "uint256[]",
          "name": "_amounts",
          "type": "uint256[]"
        }
      ],
      "name": "TransferBatch",
      "type": "event"
    },
    {
      "anonymous": false,
      "inputs": [
        {
          "indexed": true,
          "internalType": "address",
          "name": "_operator",
          "type": "address"
        },
        {
          "indexed": true,
          "internalType": "address",
          "name": "_from",
          "type": "address"
        },
        {
          "indexed": true,
          "internalType": "address",
          "name": "_to",
          "type": "address"
        },
        {
          "indexed": false,
          "internalType": "uint256",
          "name": "_id",
          "type": "uint256"
        },
        {
          "indexed": false,
          "internalType": "uint256",
          "name": "_amount",
          "type": "uint256"
        }
      ],
      "name": "TransferSingle",
      "type": "event"
    },
    {
      "stateMutability": "nonpayable",
      "type": "fallback"
    },
    {
      "inputs": [
        {
          "internalType": "address",
          "name": "_provider",
          "type": "address"
        },
        {
          "internalType": "uint256[]",
          "name": "_tokenIds",
          "type": "uint256[]"
        },
        {
          "internalType": "uint256[]",
          "name": "_tokenAmounts",
          "type": "uint256[]"
        },
        {
          "internalType": "uint256[]",
          "name": "_maxCurrency",
          "type": "uint256[]"
        },
        {
          "internalType": "uint256",
          "name": "_deadline",
          "type": "uint256"
        }
      ],
      "name": "_addLiquidity",
      "outputs": [],
      "stateMutability": "nonpayable",
      "type": "function"
    },
    {
      "inputs": [
        {
          "internalType": "address",
          "name": "_owner",
          "type": "address"
        },
        {
          "internalType": "uint256",
          "name": "_id",
          "type": "uint256"
        }
      ],
      "name": "balanceOf",
      "outputs": [
        {
          "internalType": "uint256",
          "name": "",
          "type": "uint256"
        }
      ],
      "stateMutability": "view",
      "type": "function"
    },
    {
      "inputs": [
        {
          "internalType": "address[]",
          "name": "_owners",
          "type": "address[]"
        },
        {
          "internalType": "uint256[]",
          "name": "_ids",
          "type": "uint256[]"
        }
      ],
      "name": "balanceOfBatch",
      "outputs": [
        {
          "internalType": "uint256[]",
          "name": "",
          "type": "uint256[]"
        }
      ],
      "stateMutability": "view",
      "type": "function"
    },
    {
      "inputs": [
        {
          "internalType": "uint256[]",
          "name": "_tokenIds",
          "type": "uint256[]"
        },
        {
          "internalType": "uint256[]",
          "name": "_tokensBoughtAmounts",
          "type": "uint256[]"
        },
        {
          "internalType": "uint256",
          "name": "_maxCurrency",
          "type": "uint256"
        },
        {
          "internalType": "uint256",
          "name": "_deadline",
          "type": "uint256"
        },
        {
          "internalType": "address",
          "name": "_recipient",
          "type": "address"
        },
        {
          "internalType": "address[]",
          "name": "_extraFeeRecipients",
          "type": "address[]"
        },
        {
          "internalType": "uint256[]",
          "name": "_extraFeeAmounts",
          "type": "uint256[]"
        }
      ],
      "name": "buyTokens",
      "outputs": [
        {
          "internalType": "uint256[]",
          "name": "",
          "type": "uint256[]"
        }
      ],
      "stateMutability": "nonpayable",
      "type": "function"
    },
    {
      "inputs": [
        {
          "internalType": "uint256",
          "name": "_assetBoughtAmount",
          "type": "uint256"
        },
        {
          "internalType": "uint256",
          "name": "_assetSoldReserve",
          "type": "uint256"
        },
        {
          "internalType": "uint256",
          "name": "_assetBoughtReserve",
          "type": "uint256"
        }
      ],
      "name": "getBuyPrice",
      "outputs": [
        {
          "internalType": "uint256",
          "name": "price",
          "type": "uint256"
        }
      ],
      "stateMutability": "view",
      "type": "function"
    },
    {
      "inputs": [
        {
          "internalType": "uint256",
          "name": "_tokenId",
          "type": "uint256"
        },
        {
          "internalType": "uint256",
          "name": "_assetBoughtAmount",
          "type": "uint256"
        },
        {
          "internalType": "uint256",
          "name": "_assetSoldReserve",
          "type": "uint256"
        },
        {
          "internalType": "uint256",
          "name": "_assetBoughtReserve",
          "type": "uint256"
        }
      ],
      "name": "getBuyPriceWithRoyalty",
      "outputs": [
        {
          "internalType": "uint256",
          "name": "price",
          "type": "uint256"
        }
      ],
      "stateMutability": "view",
      "type": "function"
    },
    {
      "inputs": [],
      "name": "getCurrencyInfo",
      "outputs": [
        {
          "internalType": "address",
          "name": "",
          "type": "address"
        }
      ],
      "stateMutability": "view",
      "type": "function"
    },
    {
      "inputs": [
        {
          "internalType": "uint256[]",
          "name": "_ids",
          "type": "uint256[]"
        }
      ],
      "name": "getCurrencyReserves",
      "outputs": [
        {
          "internalType": "uint256[]",
          "name": "",
          "type": "uint256[]"
        }
      ],
      "stateMutability": "view",
      "type": "function"
    },
    {
      "inputs": [],
      "name": "getFactoryAddress",
      "outputs": [
        {
          "internalType": "address",
          "name": "",
          "type": "address"
        }
      ],
      "stateMutability": "view",
      "type": "function"
    },
    {
      "inputs": [],
      "name": "getGlobalRoyaltyFee",
      "outputs": [
        {
          "internalType": "uint256",
          "name": "",
          "type": "uint256"
        }
      ],
      "stateMutability": "view",
      "type": "function"
    },
    {
      "inputs": [],
      "name": "getGlobalRoyaltyRecipient",
      "outputs": [
        {
          "internalType": "address",
          "name": "",
          "type": "address"
        }
      ],
      "stateMutability": "view",
      "type": "function"
    },
    {
      "inputs": [],
      "name": "getLPFee",
      "outputs": [
        {
          "internalType": "uint256",
          "name": "",
          "type": "uint256"
        }
      ],
      "stateMutability": "view",
      "type": "function"
    },
    {
      "inputs": [
        {
          "internalType": "uint256[]",
          "name": "_ids",
          "type": "uint256[]"
        },
        {
          "internalType": "uint256[]",
          "name": "_tokensBought",
          "type": "uint256[]"
        }
      ],
      "name": "getPrice_currencyToToken",
      "outputs": [
        {
          "internalType": "uint256[]",
          "name": "",
          "type": "uint256[]"
        }
      ],
      "stateMutability": "view",
      "type": "function"
    },
    {
      "inputs": [
        {
          "internalType": "uint256[]",
          "name": "_ids",
          "type": "uint256[]"
        },
        {
          "internalType": "uint256[]",
          "name": "_tokensSold",
          "type": "uint256[]"
        }
      ],
      "name": "getPrice_tokenToCurrency",
      "outputs": [
        {
          "internalType": "uint256[]",
          "name": "",
          "type": "uint256[]"
        }
      ],
      "stateMutability": "view",
      "type": "function"
    },
    {
      "inputs": [
        {
          "internalType": "address",
          "name": "_royaltyRecipient",
          "type": "address"
        }
      ],
      "name": "getRoyalties",
      "outputs": [
        {
          "internalType": "uint256",
          "name": "",
          "type": "uint256"
        }
      ],
      "stateMutability": "view",
      "type": "function"
    },
    {
      "inputs": [
        {
          "internalType": "address",
          "name": "_royaltyRecipient",
          "type": "address"
        }
      ],
      "name": "getRoyaltiesNumerator",
      "outputs": [
        {
          "internalType": "uint256",
          "name": "",
          "type": "uint256"
        }
      ],
      "stateMutability": "view",
      "type": "function"
    },
    {
      "inputs": [
        {
          "internalType": "uint256",
          "name": "_tokenId",
          "type": "uint256"
        },
        {
          "internalType": "uint256",
          "name": "_cost",
          "type": "uint256"
        }
      ],
      "name": "getRoyaltyInfo",
      "outputs": [
        {
          "internalType": "address",
          "name": "recipient",
          "type": "address"
        },
        {
          "internalType": "uint256",
          "name": "royalty",
          "type": "uint256"
        }
      ],
      "stateMutability": "view",
      "type": "function"
    },
    {
      "inputs": [
        {
          "internalType": "uint256",
          "name": "_assetSoldAmount",
          "type": "uint256"
        },
        {
          "internalType": "uint256",
          "name": "_assetSoldReserve",
          "type": "uint256"
        },
        {
          "internalType": "uint256",
          "name": "_assetBoughtReserve",
          "type": "uint256"
        }
      ],
      "name": "getSellPrice",
      "outputs": [
        {
          "internalType": "uint256",
          "name": "price",
          "type": "uint256"
        }
      ],
      "stateMutability": "view",
      "type": "function"
    },
    {
      "inputs": [
        {
          "internalType": "uint256",
          "name": "_tokenId",
          "type": "uint256"
        },
        {
          "internalType": "uint256",
          "name": "_assetSoldAmount",
          "type": "uint256"
        },
        {
          "internalType": "uint256",
          "name": "_assetSoldReserve",
          "type": "uint256"
        },
        {
          "internalType": "uint256",
          "name": "_assetBoughtReserve",
          "type": "uint256"
        }
      ],
      "name": "getSellPriceWithRoyalty",
      "outputs": [
        {
          "internalType": "uint256",
          "name": "price",
          "type": "uint256"
        }
      ],
      "stateMutability": "view",
      "type": "function"
    },
    {
      "inputs": [],
      "name": "getTokenAddress",
      "outputs": [
        {
          "internalType": "address",
          "name": "",
          "type": "address"
        }
      ],
      "stateMutability": "view",
      "type": "function"
    },
    {
      "inputs": [
        {
          "internalType": "uint256[]",
          "name": "_ids",
          "type": "uint256[]"
        }
      ],
      "name": "getTotalSupply",
      "outputs": [
        {
          "internalType": "uint256[]",
          "name": "",
          "type": "uint256[]"
        }
      ],
      "stateMutability": "view",
      "type": "function"
    },
    {
      "inputs": [
        {
          "internalType": "address",
          "name": "_owner",
          "type": "address"
        },
        {
          "internalType": "address",
          "name": "_operator",
          "type": "address"
        }
      ],
      "name": "isApprovedForAll",
      "outputs": [
        {
          "internalType": "bool",
          "name": "isOperator",
          "type": "bool"
        }
      ],
      "stateMutability": "view",
      "type": "function"
    },
    {
      "inputs": [
        {
          "internalType": "address",
          "name": "",
          "type": "address"
        },
        {
          "internalType": "address",
          "name": "_from",
          "type": "address"
        },
        {
          "internalType": "uint256[]",
          "name": "_ids",
          "type": "uint256[]"
        },
        {
          "internalType": "uint256[]",
          "name": "_amounts",
          "type": "uint256[]"
        },
        {
          "internalType": "bytes",
          "name": "_data",
          "type": "bytes"
        }
      ],
      "name": "onERC1155BatchReceived",
      "outputs": [
        {
          "internalType": "bytes4",
          "name": "",
          "type": "bytes4"
        }
      ],
      "stateMutability": "nonpayable",
      "type": "function"
    },
    {
      "inputs": [
        {
          "internalType": "address",
          "name": "_operator",
          "type": "address"
        },
        {
          "internalType": "address",
          "name": "_from",
          "type": "address"
        },
        {
          "internalType": "uint256",
          "name": "_id",
          "type": "uint256"
        },
        {
          "internalType": "uint256",
          "name": "_amount",
          "type": "uint256"
        },
        {
          "internalType": "bytes",
          "name": "_data",
          "type": "bytes"
        }
      ],
      "name": "onERC1155Received",
      "outputs": [
        {
          "internalType": "bytes4",
          "name": "",
          "type": "bytes4"
        }
      ],
      "stateMutability": "nonpayable",
      "type": "function"
    },
    {
      "inputs": [
        {
          "internalType": "address",
          "name": "_from",
          "type": "address"
        },
        {
          "internalType": "address",
          "name": "_to",
          "type": "address"
        },
        {
          "internalType": "uint256[]",
          "name": "_ids",
          "type": "uint256[]"
        },
        {
          "internalType": "uint256[]",
          "name": "_amounts",
          "type": "uint256[]"
        },
        {
          "internalType": "bytes",
          "name": "_data",
          "type": "bytes"
        }
      ],
      "name": "safeBatchTransferFrom",
      "outputs": [],
      "stateMutability": "nonpayable",
      "type": "function"
    },
    {
      "inputs": [
        {
          "internalType": "address",
          "name": "_from",
          "type": "address"
        },
        {
          "internalType": "address",
          "name": "_to",
          "type": "address"
        },
        {
          "internalType": "uint256",
          "name": "_id",
          "type": "uint256"
        },
        {
          "internalType": "uint256",
          "name": "_amount",
          "type": "uint256"
        },
        {
          "internalType": "bytes",
          "name": "_data",
          "type": "bytes"
        }
      ],
      "name": "safeTransferFrom",
      "outputs": [],
      "stateMutability": "nonpayable",
      "type": "function"
    },
    {
      "inputs": [
        {
          "internalType": "address",
          "name": "_royaltyRecipient",
          "type": "address"
        }
      ],
      "name": "sendRoyalties",
      "outputs": [],
      "stateMutability": "nonpayable",
      "type": "function"
    },
    {
      "inputs": [
        {
          "internalType": "address",
          "name": "_operator",
          "type": "address"
        },
        {
          "internalType": "bool",
          "name": "_approved",
          "type": "bool"
        }
      ],
      "name": "setApprovalForAll",
      "outputs": [],
      "stateMutability": "nonpayable",
      "type": "function"
    },
    {
      "inputs": [
        {
          "internalType": "uint256",
          "name": "_fee",
          "type": "uint256"
        },
        {
          "internalType": "address",
          "name": "_recipient",
          "type": "address"
        }
      ],
      "name": "setRoyaltyInfo",
      "outputs": [],
      "stateMutability": "nonpayable",
      "type": "function"
    },
    {
      "inputs": [
        {
          "internalType": "bytes4",
          "name": "interfaceID",
          "type": "bytes4"
        }
      ],
      "name": "supportsInterface",
      "outputs": [
        {
          "internalType": "bool",
          "name": "",
          "type": "bool"
        }
      ],
      "stateMutability": "pure",
      "type": "function"
    },
    {
      "inputs": [
        {
          "internalType": "uint256",
          "name": "_id",
          "type": "uint256"
        }
      ],
      "name": "uri",
      "outputs": [
        {
          "internalType": "string",
          "name": "",
          "type": "string"
        }
      ],
      "stateMutability": "view",
      "type": "function"
    }
  ],
  "bytecode": "0x6101206040523480156200001257600080fd5b5060405162004dc738038062004dc7833981016040819052620000359162000198565b60016000556001600160a01b038316158015906200005b57506001600160a01b03821615155b620000965760405162461bcd60e51b81526020600482015260066024820152654e453230233160d01b60448201526064015b60405180910390fd5b6103e8811115620000d35760405162461bcd60e51b815260206004820152600660248201526527229918119960d11b60448201526064016200008d565b3360c0526001600160a01b03838116608052821660a052620000f8816103e8620001d9565b60e0526040516301ffc9a760e01b815263152a902d60e11b60048201526001600160a01b038416906301ffc9a790602401602060405180830381865afa92505050801562000165575060408051601f3d908101601f19168201909252620001629181019062000201565b60015b1562000172571515610100525b5050506200022c565b80516001600160a01b03811681146200019357600080fd5b919050565b600080600060608486031215620001ae57600080fd5b620001b9846200017b565b9250620001c9602085016200017b565b9150604084015190509250925092565b81810381811115620001fb57634e487b7160e01b600052601160045260246000fd5b92915050565b6000602082840312156200021457600080fd5b815180151581146200022557600080fd5b9392505050565b60805160a05160c05160e05161010051614aca620002fd6000396000611a6b01526000818161095d01528181610b2701526120800152600081816103fa01526105db01526000818161034f01528181610fc9015281816112e10152818161182901528181611c3201528181612ded0152818161322601526135e9015260008181610289015281816110b90152818161137e01528181611508015281816116bc0152818161192201528181611aac015281816123f40152818161261201528181613263015261356e0152614aca6000f3fe608060405234801561001057600080fd5b50600436106101e35760003560e01c8063863ed3001161010f578063be571468116100a2578063e985e9c511610071578063e985e9c5146104d9578063f23a6e61146104ec578063f242432a146104ff578063fca16c3b14610512576101e3565b8063be57146814610470578063c7ed115e14610483578063d93e8aaa146104b5578063e523d3fc146104c8576101e3565b8063a9c2e36c116100de578063a9c2e36c146103f8578063aeaad2081461041e578063b5de3d1414610431578063bc197c8114610444576101e3565b8063863ed300146103ac578063a22cb465146103bf578063a6313875146103d2578063a7380f6e146103e5576101e3565b80632bef5e381161018757806346adf5ca1161015657806346adf5ca1461034d5780634e1273f4146103735780636ee8e1341461038657806382da2b7314610399576101e3565b80632bef5e38146102f45780632eb2c2d6146103075780633750a8bd1461031c57806338b49e2d14610324576101e3565b80630e89341c116101c35780630e89341c1461026757806310fe9ae81461028757806314556a56146102c1578063209b96c5146102d4576101e3565b80628e09d81461021a578062fdd58e1461023157806301ffc9a714610244575b60405162461bcd60e51b81526020600482015260076024820152664e45323023323960c81b60448201526064015b60405180910390fd5b6003545b6040519081526020015b60405180910390f35b61021e61023f366004613aaf565b610525565b610257610252366004613af1565b610550565b6040519015158152602001610228565b61027a610275366004613b0e565b6105d7565b6040516102289190613b77565b7f00000000000000000000000000000000000000000000000000000000000000005b6040516001600160a01b039091168152602001610228565b61021e6102cf366004613b8a565b6106cd565b6102e76102e2366004613beb565b6106f3565b6040516102289190613c68565b6102e7610302366004613beb565b6107a1565b61031a610315366004613e0a565b610846565b005b61021e610956565b61021e610332366004613b8a565b6001600160a01b031660009081526007602052604090205490565b7f00000000000000000000000000000000000000000000000000000000000000006102a9565b6102e7610381366004613f1f565b610989565b61021e610394366004613f82565b610ada565b61031a6103a7366004613fae565b610b8c565b6102e76103ba366004614050565b611061565b61031a6103cd3660046140c9565b611208565b61031a6103e0366004613b8a565b611274565b61021e6103f3366004614102565b61130b565b7f00000000000000000000000000000000000000000000000000000000000000006102a9565b61021e61042c366004614102565b611335565b61031a61043f366004614134565b61135f565b610457610452366004613e0a565b6114cc565b6040516001600160e01b03199091168152602001610228565b6102e761047e366004614050565b6118ca565b610496610491366004614159565b611a66565b604080516001600160a01b039093168352602083019190915201610228565b6102e76104c336600461417b565b611bb6565b6004546001600160a01b03166102a9565b6102576104e736600461424b565b611dfd565b6104576104fa366004614279565b611e2b565b61031a61050d366004614279565b611f1d565b61021e610520366004613f82565b61201c565b6001600160a01b03821660009081526001602090815260408083208484529091529020545b92915050565b60006001600160e01b031982166336372b0760e01b148061058157506001600160e01b031982166301ffc9a760e01b145b8061059c57506001600160e01b03198216636cdb3d1360e11b145b806105b757506001600160e01b03198216630271189760e51b145b8061054a57506001600160e01b031982166303a24d0760e21b1492915050565b60607f00000000000000000000000000000000000000000000000000000000000000006001600160a01b031663d3d72d2a6040518163ffffffff1660e01b8152600401602060405180830381865afa158015610637573d6000803e3d6000fd5b505050506040513d601f19601f8201168201806040525081019061065b91906142e1565b6001600160a01b0316630e89341c836040518263ffffffff1660e01b815260040161068891815260200190565b600060405180830381865afa1580156106a5573d6000803e3d6000fd5b505050506040513d6000823e601f3d908101601f1916820160405261054a91908101906142fe565b6001600160a01b03811660009081526007602052604081205461054a90612710906143a0565b6060816000816001600160401b0381111561071057610710613c7b565b604051908082528060200260200182016040528015610739578160200160208202803683370190505b50905060005b82811015610798576006600087878481811061075d5761075d6143b4565b90506020020135815260200190815260200160002054828281518110610785576107856143b4565b602090810291909101015260010161073f565b50949350505050565b6060816000816001600160401b038111156107be576107be613c7b565b6040519080825280602002602001820160405280156107e7578160200160208202803683370190505b50905060005b82811015610798576005600087878481811061080b5761080b6143b4565b90506020020135815260200190815260200160002054828281518110610833576108336143b4565b60209081029190910101526001016107ed565b336001600160a01b038616148061086257506108628533611dfd565b6108c65760405162461bcd60e51b815260206004820152602f60248201527f45524331313535237361666542617463685472616e7366657246726f6d3a204960448201526e272b20a624a22fa7a822a920aa27a960891b6064820152608401610211565b6001600160a01b0384166109355760405162461bcd60e51b815260206004820152603060248201527f45524331313535237361666542617463685472616e7366657246726f6d3a204960448201526f13959053125117d49150d2541251539560821b6064820152608401610211565b610941858585856120bf565b61094f858585855a8661229e565b5050505050565b60006109847f00000000000000000000000000000000000000000000000000000000000000006103e86143ca565b905090565b606081518351146109f15760405162461bcd60e51b815260206004820152602c60248201527f455243313135352362616c616e63654f6642617463683a20494e56414c49445f60448201526b082a4a482b2be988a9c8ea8960a31b6064820152608401610211565b600083516001600160401b03811115610a0c57610a0c613c7b565b604051908082528060200260200182016040528015610a35578160200160208202803683370190505b50905060005b8451811015610ad25760016000868381518110610a5a57610a5a6143b4565b60200260200101516001600160a01b03166001600160a01b031681526020019081526020016000206000858381518110610a9657610a966143b4565b6020026020010151815260200190815260200160002054828281518110610abf57610abf6143b4565b6020908102919091010152600101610a3b565b509392505050565b60008083118015610aeb5750600082115b610b205760405162461bcd60e51b81526020600482015260066024820152654e453230233960d01b6044820152606401610211565b6000610b4c7f0000000000000000000000000000000000000000000000000000000000000000866143dd565b90506000610b5a84836143dd565b9050600082610b6b876103e86143dd565b610b7591906143f4565b9050610b8181836143a0565b979650505050505050565b600260005403610bae5760405162461bcd60e51b815260040161021190614407565b600260005542811015610bed5760405162461bcd60e51b815260206004820152600760248201526604e4532302331360cc1b6044820152606401610211565b8351600080826001600160401b03811115610c0a57610c0a613c7b565b604051908082528060200260200182016040528015610c33578160200160208202803683370190505b5090506000836001600160401b03811115610c5057610c50613c7b565b604051908082528060200260200182016040528015610c79578160200160208202803683370190505b5090506000610c87896123c2565b905060005b85811015610fc35760008a8281518110610ca857610ca86143b4565b6020026020010151905060008a8381518110610cc657610cc66143b4565b6020026020010151905060008a8481518110610ce457610ce46143b4565b602002602001015111610d235760405162461bcd60e51b81526020600482015260076024820152664e45323023313160c81b6044820152606401610211565b60008111610d5d5760405162461bcd60e51b81526020600482015260076024820152662722991811989960c91b6044820152606401610211565b6000828152600560205260409020548015610eec576000838152600660205260408120548651909190879087908110610d9857610d986143b4565b60200260200101519050600080610dc38487610db491906143dd565b610dbe88866143ca565b612696565b91509150818f8981518110610dda57610dda6143b4565b60200260200101511015610e1a5760405162461bcd60e51b81526020600482015260076024820152664e45323023313360c81b6044820152606401610211565b610e2482856143f4565b600088815260066020526040902055610e3d828d6143f4565b9b50838582610e4d576000610e50565b60015b610e5d9060ff16856143ca565b610e6791906143dd565b610e7191906143a0565b8b8981518110610e8357610e836143b4565b602002602001018181525050818a8981518110610ea257610ea26143b4565b6020026020010181815250508a8881518110610ec057610ec06143b4565b602002602001015185610ed391906143f4565b60008881526005602052604090205550610fb892505050565b60008b8581518110610f0057610f006143b4565b602002602001015190506103e8811015610f465760405162461bcd60e51b815260206004820152600760248201526613914c8c08cc4d60ca1b6044820152606401610211565b6000848152600660205260409020819055610f61818a6143f4565b600085815260056020526040902082905588519099508190899087908110610f8b57610f8b6143b4565b60200260200101818152505080878681518110610faa57610faa6143b4565b602002602001018181525050505b505050600101610c8c565b50610ff07f00000000000000000000000000000000000000000000000000000000000000008b30876126dc565b61100b8a8a8560405180602001604052806000815250612812565b896001600160a01b03167f403f9dc4582dae52d3eeb4a22d37540ffb13c32d964c92ec5ac0d3d5628da3168a8a856040516110489392919061443e565b60405180910390a2505060016000555050505050505050565b6060836000816001600160401b0381111561107e5761107e613c7b565b6040519080825280602002602001820160405280156110a7578160200160208202803683370190505b50905060005b828110156111fd5760007f00000000000000000000000000000000000000000000000000000000000000006001600160a01b031662fdd58e308b8b868181106110f8576110f86143b4565b6040516001600160e01b031960e087901b1681526001600160a01b0390941660048501526020029190910135602483015250604401602060405180830381865afa15801561114a573d6000803e3d6000fd5b505050506040513d601f19601f8201168201806040525081019061116e9190614481565b90506111d7898984818110611185576111856143b4565b9050602002013588888581811061119e5761119e6143b4565b9050602002013583600660008e8e898181106111bc576111bc6143b4565b9050602002013581526020019081526020016000205461130b565b8383815181106111e9576111e96143b4565b6020908102919091010152506001016110ad565b509695505050505050565b3360008181526002602090815260408083206001600160a01b03871680855290835292819020805460ff191686151590811790915590519081529192917f17307eab39ab6107e8899845ad3d59bd9653f200f220920489ca2b5937696c31910160405180910390a35050565b6001600160a01b03811660009081526007602052604081205461129a90612710906143a0565b6001600160a01b0383166000908152600760205260409020549091506112c3906127109061449a565b6001600160a01b0383166000908152600760205260409020556113077f00000000000000000000000000000000000000000000000000000000000000008383612976565b5050565b600080611319858585610ada565b905060006113278783611a66565b9150610b81905081836143ca565b60008061134385858561201c565b905060006113518783611a66565b9150610b81905081836143f4565b6040516301ffc9a760e01b815263152a902d60e11b60048201526000907f00000000000000000000000000000000000000000000000000000000000000006001600160a01b0316906301ffc9a790602401602060405180830381865afa1580156113cd573d6000803e3d6000fd5b505050506040513d601f19601f820116820180604052508101906113f191906144ae565b9050801561142b5760405162461bcd60e51b815260206004820152600760248201526604e4532302333360cc1b6044820152606401610211565b61143860046127106143a0565b8311156114715760405162461bcd60e51b81526020600482015260076024820152664e45323023333160c81b6044820152606401610211565b6003839055600480546001600160a01b0319166001600160a01b0384169081179091556040518481527f02365318429bf1d603e8383b62068288a077545c5c9e709201d563b3f56ce2b39060200160405180910390a2505050565b600080828060200190518101906114e391906144cb565b905063290c31c360e11b6001600160e01b031982160161169957336001600160a01b037f0000000000000000000000000000000000000000000000000000000000000000161461155f5760405162461bcd60e51b81526020600482015260076024820152662722991811991960c91b6044820152606401610211565b61159a6040518060a0016040528060006001600160a01b03168152602001600081526020016060815260200160608152602001600081525090565b838060200190518101906115ae9190614547565b8051909250600091506001600160a01b0316156115cc5781516115ce565b875b9050816060015151826040015151146116135760405162461bcd60e51b81526020600482015260076024820152664e45323023323360c81b6044820152606401610211565b60006116348888856020015186608001518688604001518960600151612aa0565b9050816001600160a01b0316896001600160a01b03167fb57378559821141c0e7ae964206b7523234d19e5783ade99b3d665eee495c9978a8a85886040015189606001516040516116899594939291906146ab565b60405180910390a35050506118b7565b637d25d48d60e01b6001600160e01b031982160161175d57336001600160a01b037f000000000000000000000000000000000000000000000000000000000000000016146117135760405162461bcd60e51b815260206004820152600760248201526613914c8c08cc8d60ca1b6044820152606401610211565b6040805180820190915260608152600060208201528380602001905181019061173c9190614718565b90508091505061175787878784600001518560200151610b8c565b506118b7565b63a3f40da760e01b6001600160e01b0319821601611806573330146117ae5760405162461bcd60e51b81526020600482015260076024820152664e45323023323560c81b6044820152606401610211565b6117d260405180606001604052806060815260200160608152602001600081525090565b838060200190518101906117e691906147ba565b905080915050611757878787846000015185602001518660400151612e26565b63373cdc0760e01b6001600160e01b031982160161188557336001600160a01b037f000000000000000000000000000000000000000000000000000000000000000016146118805760405162461bcd60e51b81526020600482015260076024820152662722991811991b60c91b6044820152606401610211565b6118b7565b60405162461bcd60e51b81526020600482015260076024820152664e45323023323760c81b6044820152606401610211565b5063bc197c8160e01b9695505050505050565b6060836000816001600160401b038111156118e7576118e7613c7b565b604051908082528060200260200182016040528015611910578160200160208202803683370190505b50905060005b828110156111fd5760007f00000000000000000000000000000000000000000000000000000000000000006001600160a01b031662fdd58e308b8b86818110611961576119616143b4565b6040516001600160e01b031960e087901b1681526001600160a01b0390941660048501526020029190910135602483015250604401602060405180830381865afa1580156119b3573d6000803e3d6000fd5b505050506040513d601f19601f820116820180604052508101906119d79190614481565b9050611a408989848181106119ee576119ee6143b4565b90506020020135888885818110611a0757611a076143b4565b90506020020135600660008d8d88818110611a2457611a246143b4565b9050602002013581526020019081526020016000205484611335565b838381518110611a5257611a526143b4565b602090810291909101015250600101611916565b6000807f000000000000000000000000000000000000000000000000000000000000000015611b8f5760405163152a902d60e11b815260048101859052602481018490527f00000000000000000000000000000000000000000000000000000000000000006001600160a01b031690632a55205a906044016040805180830381865afa925050508015611b16575060408051601f3d908101601f19168201909252611b139181019061486a565b60015b611b4d576004546003546001600160a01b039091169061271090611b3a90866143dd565b611b4491906143a0565b91509150611baf565b6000612710611b5d6004826143a0565b611b6790886143dd565b611b7191906143a0565b905082818311611b815782611b83565b815b94509450505050611baf565b6004546003546001600160a01b039091169061271090611b3a90866143dd565b9250929050565b606042851015611bf25760405162461bcd60e51b81526020600482015260076024820152664e45323023313960c81b6044820152606401610211565b6000885111611c2d5760405162461bcd60e51b815260206004820152600760248201526604e4532302332360cc1b6044820152606401610211565b611c597f00000000000000000000000000000000000000000000000000000000000000003330896126dc565b60006001600160a01b03851615611c705784611c72565b335b8451845191925088918114611cb35760405162461bcd60e51b81526020600482015260076024820152664e45323023323160c81b6044820152606401610211565b60005b81811015611d89576000868281518110611cd257611cd26143b4565b60200260200101511115611d8157858181518110611cf257611cf26143b4565b602002602001015183611d0591906143ca565b9250612710868281518110611d1c57611d1c6143b4565b6020026020010151611d2e91906143dd565b60076000898481518110611d4457611d446143b4565b60200260200101516001600160a01b03166001600160a01b031681526020019081526020016000206000828254611d7b91906143f4565b90915550505b600101611cb6565b506000611d998c8c858c88613327565b9050836001600160a01b0316336001600160a01b03167f28fb4c13c000d11e44ba9e45029f385ed02ffeae62dc5704e2c0706a4dab5ecb8e8e858c8c604051611de69594939291906146ab565b60405180910390a39b9a5050505050505050505050565b6001600160a01b03918216600090815260026020908152604080832093909416825291909152205460ff1690565b6040805160018082528183019092526000918291906020808301908036833750506040805160018082528183019092529293506000929150602080830190803683370190505090508582600081518110611e8757611e876143b4565b6020026020010181815250508481600081518110611ea757611ea76143b4565b602002602001018181525050611ec088888484886114cc565b6001600160e01b03191663bc197c8160e01b14611f095760405162461bcd60e51b815260206004820152600760248201526609c8a64604664760cb1b6044820152606401610211565b5063f23a6e6160e01b979650505050505050565b336001600160a01b0386161480611f395750611f398533611dfd565b611f985760405162461bcd60e51b815260206004820152602a60248201527f4552433131353523736166655472616e7366657246726f6d3a20494e56414c49604482015269222fa7a822a920aa27a960b11b6064820152608401610211565b6001600160a01b0384166120025760405162461bcd60e51b815260206004820152602b60248201527f4552433131353523736166655472616e7366657246726f6d3a20494e56414c4960448201526a1117d49150d2541251539560aa1b6064820152608401610211565b61200e85858585613620565b61094f858585855a866136e2565b6000808311801561202d5750600082115b6120625760405162461bcd60e51b81526020600482015260066024820152654e453230233560d01b6044820152606401610211565b600061206e85856143dd565b61207a906103e86143dd565b905060007f00000000000000000000000000000000000000000000000000000000000000006120a987866143ca565b6120b391906143dd565b90506111fd8282612696565b805182511461212e5760405162461bcd60e51b815260206004820152603560248201527f45524331313535235f7361666542617463685472616e7366657246726f6d3a206044820152740929cac82989288be82a4a482b2a6be988a9c8ea89605b1b6064820152608401610211565b815160005b8181101561223f5782818151811061214d5761214d6143b4565b602002602001015160016000886001600160a01b03166001600160a01b03168152602001908152602001600020600086848151811061218e5761218e6143b4565b6020026020010151815260200190815260200160002060008282546121b391906143ca565b925050819055508281815181106121cc576121cc6143b4565b602002602001015160016000876001600160a01b03166001600160a01b03168152602001908152602001600020600086848151811061220d5761220d6143b4565b60200260200101518152602001908152602001600020600082825461223291906143f4565b9091555050600101612133565b50836001600160a01b0316856001600160a01b0316336001600160a01b03167f4a39dc06d4c0dbc64b70af90fd698a233a518aa5d07e595d983b8c0526c8f7fb868660405161228f929190614898565b60405180910390a45050505050565b6122b0856001600160a01b03166137fc565b156123ba576000856001600160a01b031663bc197c8184338a8989886040518763ffffffff1660e01b81526004016122ec9594939291906148bd565b60206040518083038160008887f115801561230b573d6000803e3d6000fd5b50505050506040513d601f19601f8201168201806040525081019061233091906144cb565b90506001600160e01b0319811663bc197c8160e01b146123b85760405162461bcd60e51b815260206004820152603f60248201527f45524331313535235f63616c6c6f6e455243313135354261746368526563656960448201527f7665643a20494e56414c49445f4f4e5f524543454956455f4d455353414745006064820152608401610211565b505b505050505050565b805160609060018190036124d357604080516001808252818301909252600091602080830190803683370190505090507f00000000000000000000000000000000000000000000000000000000000000006001600160a01b031662fdd58e3086600081518110612434576124346143b4565b60200260200101516040518363ffffffff1660e01b815260040161246d9291906001600160a01b03929092168252602082015260400190565b602060405180830381865afa15801561248a573d6000803e3d6000fd5b505050506040513d601f19601f820116820180604052508101906124ae9190614481565b816000815181106124c1576124c16143b4565b60209081029190910101529392505050565b6000816001600160401b038111156124ed576124ed613c7b565b604051908082528060200260200182016040528015612516578160200160208202803683370190505b509050308160008151811061252d5761252d6143b4565b6001600160a01b039092166020928302919091019091015260015b828110156125fa57848181518110612562576125626143b4565b60200260200101518560018361257891906143ca565b81518110612588576125886143b4565b6020026020010151106125c75760405162461bcd60e51b81526020600482015260076024820152662722991811999960c91b6044820152606401610211565b308282815181106125da576125da6143b4565b6001600160a01b0390921660209283029190910190910152600101612548565b506040516313849cfd60e21b81526001600160a01b037f00000000000000000000000000000000000000000000000000000000000000001690634e1273f490612649908490889060040161490f565b600060405180830381865afa158015612666573d6000803e3d6000fd5b505050506040513d6000823e601f3d908101601f1916820160405261268e9190810190614922565b949350505050565b6000806126a3838561449a565b156126c4576126b283856143a0565b6126bd9060016143f4565b60016126d1565b6126ce83856143a0565b60005b915091509250929050565b604080516001600160a01b0385811660248301528481166044830152606480830185905283518084039091018152608490920183526020820180516001600160e01b03166323b872dd60e01b17905291516000928392908816916127409190614956565b6000604051808303816000865af19150503d806000811461277d576040519150601f19603f3d011682016040523d82523d6000602084013e612782565b606091505b50915091508180156127ac5750805115806127ac5750808060200190518101906127ac91906144ae565b6123ba5760405162461bcd60e51b815260206004820152603160248201527f5472616e7366657248656c7065723a3a7472616e7366657246726f6d3a207472604482015270185b9cd9995c919c9bdb4819985a5b1959607a1b6064820152608401610211565b815183511461287c5760405162461bcd60e51b815260206004820152603060248201527f455243313135354d696e744275726e2362617463684d696e743a20494e56414c60448201526f09288be82a4a482b2a6be988a9c8ea8960831b6064820152608401610211565b825160005b8181101561290e5783818151811061289b5761289b6143b4565b602002602001015160016000886001600160a01b03166001600160a01b0316815260200190815260200160002060008784815181106128dc576128dc6143b4565b60200260200101518152602001908152602001600020600082825461290191906143f4565b9091555050600101612881565b50846001600160a01b031660006001600160a01b0316336001600160a01b03167f4a39dc06d4c0dbc64b70af90fd698a233a518aa5d07e595d983b8c0526c8f7fb878760405161295f929190614898565b60405180910390a461094f60008686865a8761229e565b604080516001600160a01b038481166024830152604480830185905283518084039091018152606490920183526020820180516001600160e01b031663a9059cbb60e01b17905291516000928392908716916129d29190614956565b6000604051808303816000865af19150503d8060008114612a0f576040519150601f19603f3d011682016040523d82523d6000602084013e612a14565b606091505b5091509150818015612a3e575080511580612a3e575080806020019051810190612a3e91906144ae565b61094f5760405162461bcd60e51b815260206004820152602d60248201527f5472616e7366657248656c7065723a3a736166655472616e736665723a20747260448201526c185b9cd9995c8819985a5b1959609a1b6064820152608401610211565b6060600260005403612ac45760405162461bcd60e51b815260040161021190614407565b6002600055875142861015612b045760405162461bcd60e51b815260206004820152600660248201526527229918119b60d11b6044820152606401610211565b6000816001600160401b03811115612b1e57612b1e613c7b565b604051908082528060200260200182016040528015612b47578160200160208202803683370190505b5092506000612b558b6123c2565b905060005b83811015612cd65760008c8281518110612b7657612b766143b4565b6020026020010151905060008c8381518110612b9457612b946143b4565b602002602001015190506000848481518110612bb257612bb26143b4565b6020026020010151905060008211612bf55760405162461bcd60e51b81526020600482015260066024820152654e453230233760d01b6044820152606401610211565b60008381526006602052604081205490612c1984612c1381866143ca565b84610ada565b9050600080612c288784611a66565b90925090508015612c6d57612c3f612710826143dd565b6001600160a01b03831660009081526007602052604081208054909190612c679084906143f4565b90915550505b612c7781846143ca565b612c81908b6143f4565b9950612c8d83856143ca565b600088815260066020526040902055612ca681846143ca565b8c8981518110612cb857612cb86143b4565b6020908102919091010152505060019095019450612b5a9350505050565b5060005b8551811015612dae576000868281518110612cf757612cf76143b4565b60200260200101511115612da657858181518110612d1757612d176143b4565b602002602001015183612d2a91906143ca565b9250612710868281518110612d4157612d416143b4565b6020026020010151612d5391906143dd565b60076000898481518110612d6957612d696143b4565b60200260200101516001600160a01b03166001600160a01b031681526020019081526020016000206000828254612da091906143f4565b90915550505b600101612cda565b5088821015612de85760405162461bcd60e51b815260206004820152600660248201526509c8a646046760d31b6044820152606401610211565b612e137f00000000000000000000000000000000000000000000000000000000000000008884612976565b5050506001600055979650505050505050565b600260005403612e485760405162461bcd60e51b815260040161021190614407565b6002600055428111612e865760405162461bcd60e51b81526020600482015260076024820152664e45323023313560c81b6044820152606401610211565b8451600080826001600160401b03811115612ea357612ea3613c7b565b604051908082528060200260200182016040528015612ecc578160200160208202803683370190505b5090506000836001600160401b03811115612ee957612ee9613c7b565b604051908082528060200260200182016040528015612f4557816020015b612f326040518060800160405280600081526020016000815260200160008152602001600081525090565b815260200190600190039081612f075790505b5090506000612f538a6123c2565b905060005b858110156132155760008b8281518110612f7457612f746143b4565b6020026020010151905060008b8381518110612f9257612f926143b4565b6020026020010151905060006005600084815260200190815260200160002054905060008111612fee5760405162461bcd60e51b81526020600482015260076024820152662722991811989b60c91b6044820152606401610211565b600083815260066020526040812054865190919081908190899089908110613018576130186143b4565b602002602001015190506000806000806130358b8b878b8d613836565b6001600160a01b03821660009081526007602052604081208054979e50959c5093995091975095509350839261306c9084906143f4565b92505081905550838e8d81518110613086576130866143b4565b60200260200101516020018181525050828e8d815181106130a9576130a96143b4565b60200260200101516040018181525050888e8d815181106130cc576130cc6143b4565b6020026020010151606001818152505050505050508e87815181106130f3576130f36143b4565b60200260200101518210156131345760405162461bcd60e51b81526020600482015260076024820152664e45323023313760c81b6044820152606401610211565b8d8781518110613146576131466143b4565b60200260200101518110156131875760405162461bcd60e51b815260206004820152600760248201526609c8a64604662760cb1b6044820152606401610211565b61319185856143ca565b6000878152600560205260409020556131aa82846143ca565b6000878152600660205260409020556131c3828c6143f4565b9a50808a88815181106131d8576131d86143b4565b602002602001018181525050818988815181106131f7576131f76143b4565b602090810291909101015152505060019094019350612f5892505050565b50613221308b8b61393b565b61324c7f00000000000000000000000000000000000000000000000000000000000000008c86612976565b604051631759616b60e11b81526001600160a01b037f00000000000000000000000000000000000000000000000000000000000000001690632eb2c2d69061329e9030908f908f908990600401614972565b600060405180830381600087803b1580156132b857600080fd5b505af11580156132cc573d6000803e3d6000fd5b505050508a6001600160a01b03167f3024a3223ce9e6a0b0324a52224694f329e7f092c1a7b74067b8f3cbfa1885718b858560405161330d939291906149cd565b60405180910390a250506001600055505050505050505050565b606060026000540361334b5760405162461bcd60e51b815260040161021190614407565b6002600055428310156133895760405162461bcd60e51b81526020600482015260066024820152654e453230233360d01b6044820152606401610211565b855184816001600160401b038111156133a4576133a4613c7b565b6040519080825280602002602001820160405280156133cd578160200160208202803683370190505b50925060006133db896123c2565b905060005b838110156135565760008a82815181106133fc576133fc6143b4565b6020026020010151905060008a838151811061341a5761341a6143b4565b602002602001015190506000848481518110613438576134386143b4565b602002602001015190506000821161347b5760405162461bcd60e51b815260206004820152600660248201526513914c8c08cd60d21b6044820152606401610211565b6000838152600660205260408120549061349684838561201c565b90506000806134a58784611a66565b909250905080156134ea576134bc612710826143dd565b6001600160a01b038316600090815260076020526040812080549091906134e49084906143f4565b90915550505b6134f481846143f4565b6134fe908b6143ca565b995061350a81846143f4565b8c898151811061351c5761351c6143b4565b602090810291909101015261353183856143f4565b600097885260066020526040909720969096555050600190940193506133e092505050565b50604051631759616b60e11b81526001600160a01b037f00000000000000000000000000000000000000000000000000000000000000001690632eb2c2d6906135a990309089908e908e90600401614972565b600060405180830381600087803b1580156135c357600080fd5b505af11580156135d7573d6000803e3d6000fd5b50505050600082111561360f5761360f7f00000000000000000000000000000000000000000000000000000000000000008684612976565b505050600160005595945050505050565b6001600160a01b0384166000908152600160209081526040808320858452909152812080548392906136539084906143ca565b90915550506001600160a01b03831660009081526001602090815260408083208584529091528120805483929061368b9084906143f4565b909155505060408051838152602081018390526001600160a01b03808616929087169133917fc3d58168c5ae7397731d063d5bbf3d657854427343f4c083240f7aacaa2d0f6291015b60405180910390a450505050565b6136f4856001600160a01b03166137fc565b156123ba576000856001600160a01b031663f23a6e6184338a8989886040518763ffffffff1660e01b8152600401613730959493929190614a5a565b60206040518083038160008887f115801561374f573d6000803e3d6000fd5b50505050506040513d601f19601f8201168201806040525081019061377491906144cb565b90506001600160e01b0319811663f23a6e6160e01b146123b85760405162461bcd60e51b815260206004820152603a60248201527f45524331313535235f63616c6c6f6e4552433131353552656365697665643a2060448201527f494e56414c49445f4f4e5f524543454956455f4d4553534147450000000000006064820152608401610211565b6000813f801580159061382f57507fc5d2460186f7233c927e7db2dcc703c0e500b653ca82273b7bfad8045d85a4708114155b9392505050565b6000808080808080613848898c6143dd565b905060006138568b8d6143dd565b9050613862898261449a565b955085156139145760008961387781846143a0565b613881908e6143ca565b61388b91906143dd565b905060008a61389a81866143a0565b6138a4908e6143ca565b6138ae91906143dd565b905080158015906138be57508115155b15613911576138ce888383610ada565b96506138da8f88611a66565b90965094506138e985886143ca565b96506138f587856143f4565b93508a613904612710876143dd565b61390e91906143a0565b94505b50505b61391e89836143a0565b975061392a89826143a0565b965050509550955095509550955095565b8151815181146139a65760405162461bcd60e51b815260206004820152603060248201527f455243313135354d696e744275726e2362617463684275726e3a20494e56414c60448201526f09288be82a4a482b2a6be988a9c8ea8960831b6064820152608401610211565b60005b81811015613a36578281815181106139c3576139c36143b4565b602002602001015160016000876001600160a01b03166001600160a01b031681526020019081526020016000206000868481518110613a0457613a046143b4565b602002602001015181526020019081526020016000206000828254613a2991906143ca565b90915550506001016139a9565b5060006001600160a01b0316846001600160a01b0316336001600160a01b03167f4a39dc06d4c0dbc64b70af90fd698a233a518aa5d07e595d983b8c0526c8f7fb86866040516136d4929190614898565b6001600160a01b0381168114613a9c57600080fd5b50565b8035613aaa81613a87565b919050565b60008060408385031215613ac257600080fd5b8235613acd81613a87565b946020939093013593505050565b6001600160e01b031981168114613a9c57600080fd5b600060208284031215613b0357600080fd5b813561382f81613adb565b600060208284031215613b2057600080fd5b5035919050565b60005b83811015613b42578181015183820152602001613b2a565b50506000910152565b60008151808452613b63816020860160208601613b27565b601f01601f19169290920160200192915050565b60208152600061382f6020830184613b4b565b600060208284031215613b9c57600080fd5b813561382f81613a87565b60008083601f840112613bb957600080fd5b5081356001600160401b03811115613bd057600080fd5b6020830191508360208260051b8501011115611baf57600080fd5b60008060208385031215613bfe57600080fd5b82356001600160401b03811115613c1457600080fd5b613c2085828601613ba7565b90969095509350505050565b60008151808452602080850194506020840160005b83811015613c5d57815187529582019590820190600101613c41565b509495945050505050565b60208152600061382f6020830184613c2c565b634e487b7160e01b600052604160045260246000fd5b60405160a081016001600160401b0381118282101715613cb357613cb3613c7b565b60405290565b604051606081016001600160401b0381118282101715613cb357613cb3613c7b565b604051601f8201601f191681016001600160401b0381118282101715613d0357613d03613c7b565b604052919050565b60006001600160401b03821115613d2457613d24613c7b565b5060051b60200190565b600082601f830112613d3f57600080fd5b81356020613d54613d4f83613d0b565b613cdb565b8083825260208201915060208460051b870101935086841115613d7657600080fd5b602086015b848110156111fd5780358352918301918301613d7b565b60006001600160401b03821115613dab57613dab613c7b565b50601f01601f191660200190565b600082601f830112613dca57600080fd5b8135613dd8613d4f82613d92565b818152846020838601011115613ded57600080fd5b816020850160208301376000918101602001919091529392505050565b600080600080600060a08688031215613e2257600080fd5b8535613e2d81613a87565b94506020860135613e3d81613a87565b935060408601356001600160401b0380821115613e5957600080fd5b613e6589838a01613d2e565b94506060880135915080821115613e7b57600080fd5b613e8789838a01613d2e565b93506080880135915080821115613e9d57600080fd5b50613eaa88828901613db9565b9150509295509295909350565b600082601f830112613ec857600080fd5b81356020613ed8613d4f83613d0b565b8083825260208201915060208460051b870101935086841115613efa57600080fd5b602086015b848110156111fd578035613f1281613a87565b8352918301918301613eff565b60008060408385031215613f3257600080fd5b82356001600160401b0380821115613f4957600080fd5b613f5586838701613eb7565b93506020850135915080821115613f6b57600080fd5b50613f7885828601613d2e565b9150509250929050565b600080600060608486031215613f9757600080fd5b505081359360208301359350604090920135919050565b600080600080600060a08688031215613fc657600080fd5b8535613fd181613a87565b945060208601356001600160401b0380821115613fed57600080fd5b613ff989838a01613d2e565b9550604088013591508082111561400f57600080fd5b61401b89838a01613d2e565b9450606088013591508082111561403157600080fd5b5061403e88828901613d2e565b95989497509295608001359392505050565b6000806000806040858703121561406657600080fd5b84356001600160401b038082111561407d57600080fd5b61408988838901613ba7565b909650945060208701359150808211156140a257600080fd5b506140af87828801613ba7565b95989497509550505050565b8015158114613a9c57600080fd5b600080604083850312156140dc57600080fd5b82356140e781613a87565b915060208301356140f7816140bb565b809150509250929050565b6000806000806080858703121561411857600080fd5b5050823594602084013594506040840135936060013592509050565b6000806040838503121561414757600080fd5b8235915060208301356140f781613a87565b6000806040838503121561416c57600080fd5b50508035926020909101359150565b600080600080600080600060e0888a03121561419657600080fd5b87356001600160401b03808211156141ad57600080fd5b6141b98b838c01613d2e565b985060208a01359150808211156141cf57600080fd5b6141db8b838c01613d2e565b975060408a0135965060608a013595506141f760808b01613a9f565b945060a08a013591508082111561420d57600080fd5b6142198b838c01613eb7565b935060c08a013591508082111561422f57600080fd5b5061423c8a828b01613d2e565b91505092959891949750929550565b6000806040838503121561425e57600080fd5b823561426981613a87565b915060208301356140f781613a87565b600080600080600060a0868803121561429157600080fd5b853561429c81613a87565b945060208601356142ac81613a87565b9350604086013592506060860135915060808601356001600160401b038111156142d557600080fd5b613eaa88828901613db9565b6000602082840312156142f357600080fd5b815161382f81613a87565b60006020828403121561431057600080fd5b81516001600160401b0381111561432657600080fd5b8201601f8101841361433757600080fd5b8051614345613d4f82613d92565b81815285602083850101111561435a57600080fd5b61436b826020830160208601613b27565b95945050505050565b634e487b7160e01b600052601260045260246000fd5b634e487b7160e01b600052601160045260246000fd5b6000826143af576143af614374565b500490565b634e487b7160e01b600052603260045260246000fd5b8181038181111561054a5761054a61438a565b808202811582820484141761054a5761054a61438a565b8082018082111561054a5761054a61438a565b6020808252601f908201527f5265656e7472616e637947756172643a207265656e7472616e742063616c6c00604082015260600190565b6060815260006144516060830186613c2c565b82810360208401526144638186613c2c565b905082810360408401526144778185613c2c565b9695505050505050565b60006020828403121561449357600080fd5b5051919050565b6000826144a9576144a9614374565b500690565b6000602082840312156144c057600080fd5b815161382f816140bb565b6000602082840312156144dd57600080fd5b815161382f81613adb565b600082601f8301126144f957600080fd5b81516020614509613d4f83613d0b565b8083825260208201915060208460051b87010193508684111561452b57600080fd5b602086015b848110156111fd5780518352918301918301614530565b6000806040838503121561455a57600080fd5b825161456581613adb565b809250506020808401516001600160401b038082111561458457600080fd5b9085019060a0828803121561459857600080fd5b6145a0613c91565b82516145ab81613a87565b815282840151848201526040830151828111156145c757600080fd5b8301601f810189136145d857600080fd5b80516145e6613d4f82613d0b565b81815260059190911b8201860190868101908b83111561460557600080fd5b928701925b8284101561462c57835161461d81613a87565b8252928701929087019061460a565b6040850152505050606083015193508184111561464857600080fd5b614654888585016144e8565b606082015260808301516080820152809450505050509250929050565b60008151808452602080850194506020840160005b83811015613c5d5781516001600160a01b031687529582019590820190600101614686565b60a0815260006146be60a0830188613c2c565b82810360208401526146d08188613c2c565b905082810360408401526146e48187613c2c565b905082810360608401526146f88186614671565b9050828103608084015261470c8185613c2c565b98975050505050505050565b6000806040838503121561472b57600080fd5b825161473681613adb565b60208401519092506001600160401b038082111561475357600080fd5b908401906040828703121561476757600080fd5b60405160408101818110838211171561478257614782613c7b565b60405282518281111561479457600080fd5b6147a0888286016144e8565b825250602083015160208201528093505050509250929050565b600080604083850312156147cd57600080fd5b82516147d881613adb565b60208401519092506001600160401b03808211156147f557600080fd5b908401906060828703121561480957600080fd5b614811613cb9565b82518281111561482057600080fd5b61482c888286016144e8565b82525060208301518281111561484157600080fd5b61484d888286016144e8565b602083015250604083015160408201528093505050509250929050565b6000806040838503121561487d57600080fd5b825161488881613a87565b6020939093015192949293505050565b6040815260006148ab6040830185613c2c565b828103602084015261436b8185613c2c565b6001600160a01b0386811682528516602082015260a0604082018190526000906148e990830186613c2c565b82810360608401526148fb8186613c2c565b9050828103608084015261470c8185613b4b565b6040815260006148ab6040830185614671565b60006020828403121561493457600080fd5b81516001600160401b0381111561494a57600080fd5b61268e848285016144e8565b60008251614968818460208701613b27565b9190910192915050565b6001600160a01b0385811682528416602082015260a06040820181905260009061499e90830185613c2c565b82810360608401526149b08185613c2c565b838103608090940193909352505060008152602001949350505050565b600060608083526149e16060840187613c2c565b6020848203818601526149f48288613c2c565b9150604085830360408701528287518085528385019150838901945060005b81811015614a4a57855180518452858101518685015284810151858501528701518784015294840194608090920191600101614a13565b50909a9950505050505050505050565b6001600160a01b03868116825285166020820152604081018490526060810183905260a060808201819052600090610b8190830184613b4b56fea2646970667358221220a7a0a6a4e86c8ba9558264c55825a16d76b107f9befe240c190c8d446556de2564736f6c63430008180033",
  "linkReferences": {},
  "deployedLinkReferences": {}
}